{
  "contractName": "Database",
  "abi": [
    {
      "inputs": [
        {
          "internalType": "address",
          "name": "pubkey",
          "type": "address"
        }
      ],
      "name": "checkUserExists",
      "outputs": [
        {
          "internalType": "bool",
          "name": "",
          "type": "bool"
        }
      ],
      "stateMutability": "view",
      "type": "function"
    },
    {
      "inputs": [
        {
          "internalType": "address",
          "name": "pubkey",
          "type": "address"
        }
      ],
      "name": "getUserName",
      "outputs": [
        {
          "internalType": "string",
          "name": "",
          "type": "string"
        }
      ],
      "stateMutability": "view",
      "type": "function"
    },
    {
      "inputs": [
        {
          "internalType": "string",
          "name": "userName",
          "type": "string"
        }
      ],
      "name": "createAccount",
      "outputs": [],
      "stateMutability": "nonpayable",
      "type": "function"
    },
    {
      "inputs": [
        {
          "internalType": "address",
          "name": "friend_key",
          "type": "address"
        },
        {
          "internalType": "string",
          "name": "userName",
          "type": "string"
        }
      ],
      "name": "addFriend",
      "outputs": [],
      "stateMutability": "nonpayable",
      "type": "function"
    },
    {
      "inputs": [],
      "name": "getMyFriendList",
      "outputs": [
        {
          "components": [
            {
              "internalType": "address",
              "name": "pubkey",
              "type": "address"
            },
            {
              "internalType": "string",
              "name": "name",
              "type": "string"
            }
          ],
          "internalType": "struct Database.Friend[]",
          "name": "",
          "type": "tuple[]"
        }
      ],
      "stateMutability": "view",
      "type": "function"
    },
    {
      "inputs": [
        {
          "internalType": "address",
          "name": "friend_key",
          "type": "address"
        },
        {
          "internalType": "string",
          "name": "_msg",
          "type": "string"
        }
      ],
      "name": "sendMessage",
      "outputs": [],
      "stateMutability": "nonpayable",
      "type": "function"
    },
    {
      "inputs": [
        {
          "internalType": "address",
          "name": "friend_key",
          "type": "address"
        }
      ],
      "name": "readMessage",
      "outputs": [
        {
          "components": [
            {
              "internalType": "address",
              "name": "sender",
              "type": "address"
            },
            {
              "internalType": "uint256",
              "name": "timestamp",
              "type": "uint256"
            },
            {
              "internalType": "string",
              "name": "data",
              "type": "string"
            }
          ],
          "internalType": "struct Database.Message[]",
          "name": "",
          "type": "tuple[]"
        }
      ],
      "stateMutability": "view",
      "type": "function"
    },
    {
      "inputs": [
        {
          "internalType": "string",
          "name": "name",
          "type": "string"
        },
        {
          "internalType": "string",
          "name": "about",
          "type": "string"
        }
      ],
      "name": "addGroup",
      "outputs": [],
      "stateMutability": "nonpayable",
      "type": "function"
    },
    {
      "inputs": [],
      "name": "getMyGroupList",
      "outputs": [
        {
          "components": [
            {
              "internalType": "string",
              "name": "groupName",
              "type": "string"
            },
            {
              "internalType": "string",
              "name": "groupAbout",
              "type": "string"
            },
            {
              "internalType": "string",
              "name": "groupPhoto",
              "type": "string"
            },
            {
              "internalType": "address",
              "name": "admin",
              "type": "address"
            },
            {
              "internalType": "address[]",
              "name": "membersArray",
              "type": "address[]"
            },
            {
              "components": [
                {
                  "internalType": "address",
                  "name": "sender",
                  "type": "address"
                },
                {
                  "internalType": "uint256",
                  "name": "timestamp",
                  "type": "uint256"
                },
                {
                  "internalType": "string",
                  "name": "data",
                  "type": "string"
                }
              ],
              "internalType": "struct Database.Message[]",
              "name": "messages",
              "type": "tuple[]"
            }
          ],
          "internalType": "struct Database.Group[]",
          "name": "",
          "type": "tuple[]"
        }
      ],
      "stateMutability": "view",
      "type": "function"
    },
    {
      "inputs": [
        {
          "internalType": "address",
          "name": "me",
          "type": "address"
        },
        {
          "internalType": "string",
          "name": "name",
          "type": "string"
        },
        {
          "internalType": "address",
          "name": "newMember",
          "type": "address"
        }
      ],
      "name": "addGroupMembers",
      "outputs": [],
      "stateMutability": "nonpayable",
      "type": "function"
    },
    {
      "inputs": [
        {
          "internalType": "address",
          "name": "me",
          "type": "address"
        },
        {
          "internalType": "string",
          "name": "name",
          "type": "string"
        },
        {
          "internalType": "address",
          "name": "memberToRemove",
          "type": "address"
        }
      ],
      "name": "removeGroupMembers",
      "outputs": [],
      "stateMutability": "nonpayable",
      "type": "function"
    },
    {
      "inputs": [
        {
          "internalType": "address",
          "name": "me",
          "type": "address"
        },
        {
          "internalType": "string",
          "name": "name",
          "type": "string"
        },
        {
          "internalType": "string",
          "name": "_msg",
          "type": "string"
        }
      ],
      "name": "sendMessageGroup",
      "outputs": [],
      "stateMutability": "nonpayable",
      "type": "function"
    },
    {
      "inputs": [
        {
          "internalType": "address",
          "name": "me",
          "type": "address"
        },
        {
          "internalType": "string",
          "name": "name",
          "type": "string"
        }
      ],
      "name": "readMessageGroup",
      "outputs": [
        {
          "components": [
            {
              "internalType": "address",
              "name": "sender",
              "type": "address"
            },
            {
              "internalType": "uint256",
              "name": "timestamp",
              "type": "uint256"
            },
            {
              "internalType": "string",
              "name": "data",
              "type": "string"
            }
          ],
          "internalType": "struct Database.Message[]",
          "name": "",
          "type": "tuple[]"
        }
      ],
      "stateMutability": "view",
      "type": "function"
    },
    {
      "inputs": [
        {
          "internalType": "string",
          "name": "url",
          "type": "string"
        }
      ],
      "name": "setWallpaper",
      "outputs": [],
      "stateMutability": "nonpayable",
      "type": "function"
    },
    {
      "inputs": [],
      "name": "getMyWallpaper",
      "outputs": [
        {
          "internalType": "string",
          "name": "",
          "type": "string"
        }
      ],
      "stateMutability": "view",
      "type": "function"
    }
  ],
  "bytecode": "0x608060405234801561001057600080fd5b50613b0b806100206000396000f3fe608060405234801561001057600080fd5b50600436106100f55760003560e01c80633b9f708d11610097578063d84f55ee11610066578063d84f55ee1461026e578063db0efa101461029e578063de6f24bb146102ba578063fa6fbff9146102d6576100f5565b80633b9f708d146101fc578063606a6092146102185780636a064e5c14610234578063bd0f4d0d14610250576100f5565b80631f78afa4116100d35780631f78afa414610164578063255e9c1114610194578063298daf5b146101c45780633775bf1b146101e0576100f5565b806308f56e90146100fa578063133f50f51461011857806314ae06de14610148575b600080fd5b6101026102f4565b60405161010f91906128d9565b60405180910390f35b610132600480360381019061012d919061296d565b6103c8565b60405161013f91906129b5565b60405180910390f35b610162600480360381019061015d9190612b05565b610421565b005b61017e60048036038101906101799190612b74565b6107f3565b60405161018b9190612d54565b60405180910390f35b6101ae60048036038101906101a9919061296d565b610ac1565b6040516101bb9190612d54565b60405180910390f35b6101de60048036038101906101d99190612dd6565b610c34565b005b6101fa60048036038101906101f59190612e23565b610d1e565b005b61021660048036038101906102119190612e9b565b6110fd565b005b610232600480360381019061022d9190612b05565b611373565b005b61024e60048036038101906102499190612efb565b61177d565b005b610258611a13565b604051610265919061308a565b60405180910390f35b6102886004803603810190610283919061296d565b611b99565b60405161029591906128d9565b60405180910390f35b6102b860048036038101906102b391906130ac565b611cb4565b005b6102d460048036038101906102cf9190612e9b565b611d10565b005b6102de611f24565b6040516102eb9190613391565b60405180910390f35b60606000803373ffffffffffffffffffffffffffffffffffffffff1673ffffffffffffffffffffffffffffffffffffffff1681526020019081526020016000206007016000018054610345906133e2565b80601f0160208091040260200160405190810160405280929190818152602001828054610371906133e2565b80156103be5780601f10610393576101008083540402835291602001916103be565b820191906000526020600020905b8154815290600101906020018083116103a157829003601f168201915b5050505050905090565b6000806000808473ffffffffffffffffffffffffffffffffffffffff1673ffffffffffffffffffffffffffffffffffffffff1681526020019081526020016000206000018054610417906133e2565b9050119050919050565b61042a336103c8565b610469576040517f08c379a00000000000000000000000000000000000000000000000000000000081526004016104609061345f565b60405180910390fd5b610472816103c8565b6104b1576040517f08c379a00000000000000000000000000000000000000000000000000000000081526004016104a8906134cb565b60405180910390fd5b8073ffffffffffffffffffffffffffffffffffffffff163373ffffffffffffffffffffffffffffffffffffffff160361051f576040517f08c379a000000000000000000000000000000000000000000000000000000000815260040161051690613537565b60405180910390fd5b60005b6000808573ffffffffffffffffffffffffffffffffffffffff1673ffffffffffffffffffffffffffffffffffffffff16815260200190815260200160002060060180549050811015610636578260405160200161057f9190613593565b604051602081830303815290604052805190602001206000808673ffffffffffffffffffffffffffffffffffffffff1673ffffffffffffffffffffffffffffffffffffffff16815260200190815260200160002060060182815481106105e8576105e76135aa565b5b9060005260206000209060060201600001604051602001610609919061366d565b604051602081830303815290604052805190602001200315610636578061062f906136b3565b9050610522565b3373ffffffffffffffffffffffffffffffffffffffff166000808673ffffffffffffffffffffffffffffffffffffffff1673ffffffffffffffffffffffffffffffffffffffff16815260200190815260200160002060060182815481106106a05761069f6135aa565b5b906000526020600020906006020160030160009054906101000a900473ffffffffffffffffffffffffffffffffffffffff1673ffffffffffffffffffffffffffffffffffffffff1614610728576040517f08c379a000000000000000000000000000000000000000000000000000000000815260040161071f9061376d565b60405180910390fd5b6000808573ffffffffffffffffffffffffffffffffffffffff1673ffffffffffffffffffffffffffffffffffffffff168152602001908152602001600020600601818154811061077b5761077a6135aa565b5b9060005260206000209060060201600401829080600181540180825580915050600190039060005260206000200160009091909190916101000a81548173ffffffffffffffffffffffffffffffffffffffff021916908373ffffffffffffffffffffffffffffffffffffffff16021790555050505050565b606060005b6000808573ffffffffffffffffffffffffffffffffffffffff1673ffffffffffffffffffffffffffffffffffffffff1681526020019081526020016000206006018054905081101561090c57826040516020016108559190613593565b604051602081830303815290604052805190602001206000808673ffffffffffffffffffffffffffffffffffffffff1673ffffffffffffffffffffffffffffffffffffffff16815260200190815260200160002060060182815481106108be576108bd6135aa565b5b90600052602060002090600602016000016040516020016108df919061366d565b60405160208183030381529060405280519060200120031561090c5780610905906136b3565b90506107f8565b6000808573ffffffffffffffffffffffffffffffffffffffff1673ffffffffffffffffffffffffffffffffffffffff168152602001908152602001600020600601818154811061095f5761095e6135aa565b5b9060005260206000209060060201600501805480602002602001604051908101604052809291908181526020016000905b82821015610ab457838290600052602060002090600302016040518060600160405290816000820160009054906101000a900473ffffffffffffffffffffffffffffffffffffffff1673ffffffffffffffffffffffffffffffffffffffff1673ffffffffffffffffffffffffffffffffffffffff16815260200160018201548152602001600282018054610a23906133e2565b80601f0160208091040260200160405190810160405280929190818152602001828054610a4f906133e2565b8015610a9c5780601f10610a7157610100808354040283529160200191610a9c565b820191906000526020600020905b815481529060010190602001808311610a7f57829003601f168201915b50505050508152505081526020019060010190610990565b5050505091505092915050565b60606000610acf33846123ad565b905060016000828152602001908152602001600020805480602002602001604051908101604052809291908181526020016000905b82821015610c2857838290600052602060002090600302016040518060600160405290816000820160009054906101000a900473ffffffffffffffffffffffffffffffffffffffff1673ffffffffffffffffffffffffffffffffffffffff1673ffffffffffffffffffffffffffffffffffffffff16815260200160018201548152602001600282018054610b97906133e2565b80601f0160208091040260200160405190810160405280929190818152602001828054610bc3906133e2565b8015610c105780601f10610be557610100808354040283529160200191610c10565b820191906000526020600020905b815481529060010190602001808311610bf357829003601f168201915b50505050508152505081526020019060010190610b04565b50505050915050919050565b60001515610c41336103c8565b151514610c83576040517f08c379a0000000000000000000000000000000000000000000000000000000008152600401610c7a906137d9565b60405180910390fd5b60008282905011610cc9576040517f08c379a0000000000000000000000000000000000000000000000000000000008152600401610cc090613845565b60405180910390fd5b81816000803373ffffffffffffffffffffffffffffffffffffffff1673ffffffffffffffffffffffffffffffffffffffff1681526020019081526020016000206000019190610d19929190612717565b505050565b610d27336103c8565b610d66576040517f08c379a0000000000000000000000000000000000000000000000000000000008152600401610d5d9061345f565b60405180910390fd5b60008060003373ffffffffffffffffffffffffffffffffffffffff1673ffffffffffffffffffffffffffffffffffffffff168152602001908152602001600020600601805490509050826000803373ffffffffffffffffffffffffffffffffffffffff1673ffffffffffffffffffffffffffffffffffffffff1681526020019081526020016000206006018281548110610e0357610e026135aa565b5b90600052602060002090600602016000019080519060200190610e2792919061279d565b50336000803373ffffffffffffffffffffffffffffffffffffffff1673ffffffffffffffffffffffffffffffffffffffff1681526020019081526020016000206006018281548110610e7c57610e7b6135aa565b5b906000526020600020906006020160030160006101000a81548173ffffffffffffffffffffffffffffffffffffffff021916908373ffffffffffffffffffffffffffffffffffffffff160217905550816000803373ffffffffffffffffffffffffffffffffffffffff1673ffffffffffffffffffffffffffffffffffffffff1681526020019081526020016000206006018281548110610f1f57610f1e6135aa565b5b90600052602060002090600602016001019080519060200190610f4392919061279d565b50604051806020016040528060008152506000803373ffffffffffffffffffffffffffffffffffffffff1673ffffffffffffffffffffffffffffffffffffffff1681526020019081526020016000206006018281548110610fa757610fa66135aa565b5b90600052602060002090600602016002019080519060200190610fcb92919061279d565b5060008060003373ffffffffffffffffffffffffffffffffffffffff1673ffffffffffffffffffffffffffffffffffffffff1681526020019081526020016000206006018281548110611021576110206135aa565b5b9060005260206000209060060201600401805490509050336000803373ffffffffffffffffffffffffffffffffffffffff1673ffffffffffffffffffffffffffffffffffffffff168152602001908152602001600020600601838154811061108c5761108b6135aa565b5b906000526020600020906006020160040182815481106110af576110ae6135aa565b5b9060005260206000200160006101000a81548173ffffffffffffffffffffffffffffffffffffffff021916908373ffffffffffffffffffffffffffffffffffffffff16021790555050505050565b611106336103c8565b611145576040517f08c379a000000000000000000000000000000000000000000000000000000000815260040161113c9061345f565b60405180910390fd5b61114e836103c8565b61118d576040517f08c379a0000000000000000000000000000000000000000000000000000000008152600401611184906134cb565b60405180910390fd5b8273ffffffffffffffffffffffffffffffffffffffff163373ffffffffffffffffffffffffffffffffffffffff16036111fb576040517f08c379a00000000000000000000000000000000000000000000000000000000081526004016111f2906138d7565b60405180910390fd5b600015156112093385612445565b15151461124b576040517f08c379a000000000000000000000000000000000000000000000000000000000815260040161124290613943565b60405180910390fd5b61129a338484848080601f016020809104026020016040519081016040528093929190818152602001838380828437600081840152601f19601f82011690508083019250505050505050612611565b61136e83336000803373ffffffffffffffffffffffffffffffffffffffff1673ffffffffffffffffffffffffffffffffffffffff16815260200190815260200160002060000180546112eb906133e2565b80601f0160208091040260200160405190810160405280929190818152602001828054611317906133e2565b80156113645780601f1061133957610100808354040283529160200191611364565b820191906000526020600020905b81548152906001019060200180831161134757829003601f168201915b5050505050612611565b505050565b60005b6000808573ffffffffffffffffffffffffffffffffffffffff1673ffffffffffffffffffffffffffffffffffffffff1681526020019081526020016000206006018054905081101561148a57826040516020016113d39190613593565b604051602081830303815290604052805190602001206000808673ffffffffffffffffffffffffffffffffffffffff1673ffffffffffffffffffffffffffffffffffffffff168152602001908152602001600020600601828154811061143c5761143b6135aa565b5b906000526020600020906006020160000160405160200161145d919061366d565b60405160208183030381529060405280519060200120031561148a5780611483906136b3565b9050611376565b3373ffffffffffffffffffffffffffffffffffffffff166000808673ffffffffffffffffffffffffffffffffffffffff1673ffffffffffffffffffffffffffffffffffffffff16815260200190815260200160002060060182815481106114f4576114f36135aa565b5b906000526020600020906006020160030160009054906101000a900473ffffffffffffffffffffffffffffffffffffffff1673ffffffffffffffffffffffffffffffffffffffff161461157c576040517f08c379a0000000000000000000000000000000000000000000000000000000008152600401611573906139af565b60405180910390fd5b60005b6000808673ffffffffffffffffffffffffffffffffffffffff1673ffffffffffffffffffffffffffffffffffffffff16815260200190815260200160002060060182815481106115d2576115d16135aa565b5b9060005260206000209060060201600401805490508110156116d3578273ffffffffffffffffffffffffffffffffffffffff166000808773ffffffffffffffffffffffffffffffffffffffff1673ffffffffffffffffffffffffffffffffffffffff1681526020019081526020016000206006018381548110611658576116576135aa565b5b9060005260206000209060060201600401828154811061167b5761167a6135aa565b5b9060005260206000200160009054906101000a900473ffffffffffffffffffffffffffffffffffffffff1673ffffffffffffffffffffffffffffffffffffffff1603156116d357806116cc906136b3565b905061157f565b6000808673ffffffffffffffffffffffffffffffffffffffff1673ffffffffffffffffffffffffffffffffffffffff1681526020019081526020016000206006018281548110611726576117256135aa565b5b90600052602060002090600602016004018181548110611749576117486135aa565b5b9060005260206000200160006101000a81549073ffffffffffffffffffffffffffffffffffffffff02191690555050505050565b60005b6000808673ffffffffffffffffffffffffffffffffffffffff1673ffffffffffffffffffffffffffffffffffffffff1681526020019081526020016000206006018054905081101561189457836040516020016117dd9190613593565b604051602081830303815290604052805190602001206000808773ffffffffffffffffffffffffffffffffffffffff1673ffffffffffffffffffffffffffffffffffffffff1681526020019081526020016000206006018281548110611846576118456135aa565b5b9060005260206000209060060201600001604051602001611867919061366d565b604051602081830303815290604052805190602001200315611894578061188d906136b3565b9050611780565b600060405180606001604052803373ffffffffffffffffffffffffffffffffffffffff16815260200142815260200185858080601f016020809104026020016040519081016040528093929190818152602001838380828437600081840152601f19601f8201169050808301925050505050505081525090506000808773ffffffffffffffffffffffffffffffffffffffff1673ffffffffffffffffffffffffffffffffffffffff16815260200190815260200160002060060182815481106119605761195f6135aa565b5b906000526020600020906006020160050181908060018154018082558091505060019003906000526020600020906003020160009091909190915060008201518160000160006101000a81548173ffffffffffffffffffffffffffffffffffffffff021916908373ffffffffffffffffffffffffffffffffffffffff160217905550602082015181600101556040820151816002019080519060200190611a0892919061279d565b505050505050505050565b60606000803373ffffffffffffffffffffffffffffffffffffffff1673ffffffffffffffffffffffffffffffffffffffff168152602001908152602001600020600501805480602002602001604051908101604052809291908181526020016000905b82821015611b9057838290600052602060002090600202016040518060400160405290816000820160009054906101000a900473ffffffffffffffffffffffffffffffffffffffff1673ffffffffffffffffffffffffffffffffffffffff1673ffffffffffffffffffffffffffffffffffffffff168152602001600182018054611aff906133e2565b80601f0160208091040260200160405190810160405280929190818152602001828054611b2b906133e2565b8015611b785780601f10611b4d57610100808354040283529160200191611b78565b820191906000526020600020905b815481529060010190602001808311611b5b57829003601f168201915b50505050508152505081526020019060010190611a76565b50505050905090565b6060611ba4826103c8565b611be3576040517f08c379a0000000000000000000000000000000000000000000000000000000008152600401611bda906134cb565b60405180910390fd5b6000808373ffffffffffffffffffffffffffffffffffffffff1673ffffffffffffffffffffffffffffffffffffffff1681526020019081526020016000206000018054611c2f906133e2565b80601f0160208091040260200160405190810160405280929190818152602001828054611c5b906133e2565b8015611ca85780601f10611c7d57610100808354040283529160200191611ca8565b820191906000526020600020905b815481529060010190602001808311611c8b57829003601f168201915b50505050509050919050565b806000803373ffffffffffffffffffffffffffffffffffffffff1673ffffffffffffffffffffffffffffffffffffffff1681526020019081526020016000206007016000019080519060200190611d0c92919061279d565b5050565b611d19336103c8565b611d58576040517f08c379a0000000000000000000000000000000000000000000000000000000008152600401611d4f9061345f565b60405180910390fd5b611d61836103c8565b611da0576040517f08c379a0000000000000000000000000000000000000000000000000000000008152600401611d97906134cb565b60405180910390fd5b611daa3384612445565b611de9576040517f08c379a0000000000000000000000000000000000000000000000000000000008152600401611de090613a41565b60405180910390fd5b6000611df533856123ad565b9050600060405180606001604052803373ffffffffffffffffffffffffffffffffffffffff16815260200142815260200185858080601f016020809104026020016040519081016040528093929190818152602001838380828437600081840152601f19601f8201169050808301925050505050505081525090506001600083815260200190815260200160002081908060018154018082558091505060019003906000526020600020906003020160009091909190915060008201518160000160006101000a81548173ffffffffffffffffffffffffffffffffffffffff021916908373ffffffffffffffffffffffffffffffffffffffff160217905550602082015181600101556040820151816002019080519060200190611f1a92919061279d565b5050505050505050565b60606000803373ffffffffffffffffffffffffffffffffffffffff1673ffffffffffffffffffffffffffffffffffffffff168152602001908152602001600020600601805480602002602001604051908101604052809291908181526020016000905b828210156123a457838290600052602060002090600602016040518060c0016040529081600082018054611fba906133e2565b80601f0160208091040260200160405190810160405280929190818152602001828054611fe6906133e2565b80156120335780601f1061200857610100808354040283529160200191612033565b820191906000526020600020905b81548152906001019060200180831161201657829003601f168201915b5050505050815260200160018201805461204c906133e2565b80601f0160208091040260200160405190810160405280929190818152602001828054612078906133e2565b80156120c55780601f1061209a576101008083540402835291602001916120c5565b820191906000526020600020905b8154815290600101906020018083116120a857829003601f168201915b505050505081526020016002820180546120de906133e2565b80601f016020809104026020016040519081016040528092919081815260200182805461210a906133e2565b80156121575780601f1061212c57610100808354040283529160200191612157565b820191906000526020600020905b81548152906001019060200180831161213a57829003601f168201915b505050505081526020016003820160009054906101000a900473ffffffffffffffffffffffffffffffffffffffff1673ffffffffffffffffffffffffffffffffffffffff1673ffffffffffffffffffffffffffffffffffffffff1681526020016004820180548060200260200160405190810160405280929190818152602001828054801561223b57602002820191906000526020600020905b8160009054906101000a900473ffffffffffffffffffffffffffffffffffffffff1673ffffffffffffffffffffffffffffffffffffffff16815260200190600101908083116121f1575b5050505050815260200160058201805480602002602001604051908101604052809291908181526020016000905b8282101561238d57838290600052602060002090600302016040518060600160405290816000820160009054906101000a900473ffffffffffffffffffffffffffffffffffffffff1673ffffffffffffffffffffffffffffffffffffffff1673ffffffffffffffffffffffffffffffffffffffff168152602001600182015481526020016002820180546122fc906133e2565b80601f0160208091040260200160405190810160405280929190818152602001828054612328906133e2565b80156123755780601f1061234a57610100808354040283529160200191612375565b820191906000526020600020905b81548152906001019060200180831161235857829003601f168201915b50505050508152505081526020019060010190612269565b505050508152505081526020019060010190611f87565b50505050905090565b60008173ffffffffffffffffffffffffffffffffffffffff168373ffffffffffffffffffffffffffffffffffffffff1610156124135782826040516020016123f6929190613aa9565b60405160208183030381529060405280519060200120905061243f565b8183604051602001612426929190613aa9565b6040516020818303038152906040528051906020012090505b92915050565b60008060008373ffffffffffffffffffffffffffffffffffffffff1673ffffffffffffffffffffffffffffffffffffffff168152602001908152602001600020600501805490506000808573ffffffffffffffffffffffffffffffffffffffff1673ffffffffffffffffffffffffffffffffffffffff1681526020019081526020016000206005018054905011156124e4576000839050829350809250505b60005b6000808573ffffffffffffffffffffffffffffffffffffffff1673ffffffffffffffffffffffffffffffffffffffff16815260200190815260200160002060050180549050811015612605578273ffffffffffffffffffffffffffffffffffffffff166000808673ffffffffffffffffffffffffffffffffffffffff1673ffffffffffffffffffffffffffffffffffffffff168152602001908152602001600020600501828154811061259d5761259c6135aa565b5b906000526020600020906002020160000160009054906101000a900473ffffffffffffffffffffffffffffffffffffffff1673ffffffffffffffffffffffffffffffffffffffff16036125f457600191505061260b565b806125fe906136b3565b90506124e7565b50600090505b92915050565b600060405180604001604052808473ffffffffffffffffffffffffffffffffffffffff1681526020018381525090506000808573ffffffffffffffffffffffffffffffffffffffff1673ffffffffffffffffffffffffffffffffffffffff16815260200190815260200160002060050181908060018154018082558091505060019003906000526020600020906002020160009091909190915060008201518160000160006101000a81548173ffffffffffffffffffffffffffffffffffffffff021916908373ffffffffffffffffffffffffffffffffffffffff160217905550602082015181600101908051906020019061270e92919061279d565b50505050505050565b828054612723906133e2565b90600052602060002090601f016020900481019282612745576000855561278c565b82601f1061275e57803560ff191683800117855561278c565b8280016001018555821561278c579182015b8281111561278b578235825591602001919060010190612770565b5b5090506127999190612823565b5090565b8280546127a9906133e2565b90600052602060002090601f0160209004810192826127cb5760008555612812565b82601f106127e457805160ff1916838001178555612812565b82800160010185558215612812579182015b828111156128115782518255916020019190600101906127f6565b5b50905061281f9190612823565b5090565b5b8082111561283c576000816000905550600101612824565b5090565b600081519050919050565b600082825260208201905092915050565b60005b8381101561287a57808201518184015260208101905061285f565b83811115612889576000848401525b50505050565b6000601f19601f8301169050919050565b60006128ab82612840565b6128b5818561284b565b93506128c581856020860161285c565b6128ce8161288f565b840191505092915050565b600060208201905081810360008301526128f381846128a0565b905092915050565b6000604051905090565b600080fd5b600080fd5b600073ffffffffffffffffffffffffffffffffffffffff82169050919050565b600061293a8261290f565b9050919050565b61294a8161292f565b811461295557600080fd5b50565b60008135905061296781612941565b92915050565b60006020828403121561298357612982612905565b5b600061299184828501612958565b91505092915050565b60008115159050919050565b6129af8161299a565b82525050565b60006020820190506129ca60008301846129a6565b92915050565b600080fd5b600080fd5b7f4e487b7100000000000000000000000000000000000000000000000000000000600052604160045260246000fd5b612a128261288f565b810181811067ffffffffffffffff82111715612a3157612a306129da565b5b80604052505050565b6000612a446128fb565b9050612a508282612a09565b919050565b600067ffffffffffffffff821115612a7057612a6f6129da565b5b612a798261288f565b9050602081019050919050565b82818337600083830152505050565b6000612aa8612aa384612a55565b612a3a565b905082815260208101848484011115612ac457612ac36129d5565b5b612acf848285612a86565b509392505050565b600082601f830112612aec57612aeb6129d0565b5b8135612afc848260208601612a95565b91505092915050565b600080600060608486031215612b1e57612b1d612905565b5b6000612b2c86828701612958565b935050602084013567ffffffffffffffff811115612b4d57612b4c61290a565b5b612b5986828701612ad7565b9250506040612b6a86828701612958565b9150509250925092565b60008060408385031215612b8b57612b8a612905565b5b6000612b9985828601612958565b925050602083013567ffffffffffffffff811115612bba57612bb961290a565b5b612bc685828601612ad7565b9150509250929050565b600081519050919050565b600082825260208201905092915050565b6000819050602082019050919050565b612c058161292f565b82525050565b6000819050919050565b612c1e81612c0b565b82525050565b600082825260208201905092915050565b6000612c4082612840565b612c4a8185612c24565b9350612c5a81856020860161285c565b612c638161288f565b840191505092915050565b6000606083016000830151612c866000860182612bfc565b506020830151612c996020860182612c15565b5060408301518482036040860152612cb18282612c35565b9150508091505092915050565b6000612cca8383612c6e565b905092915050565b6000602082019050919050565b6000612cea82612bd0565b612cf48185612bdb565b935083602082028501612d0685612bec565b8060005b85811015612d425784840389528151612d238582612cbe565b9450612d2e83612cd2565b925060208a01995050600181019050612d0a565b50829750879550505050505092915050565b60006020820190508181036000830152612d6e8184612cdf565b905092915050565b600080fd5b600080fd5b60008083601f840112612d9657612d956129d0565b5b8235905067ffffffffffffffff811115612db357612db2612d76565b5b602083019150836001820283011115612dcf57612dce612d7b565b5b9250929050565b60008060208385031215612ded57612dec612905565b5b600083013567ffffffffffffffff811115612e0b57612e0a61290a565b5b612e1785828601612d80565b92509250509250929050565b60008060408385031215612e3a57612e39612905565b5b600083013567ffffffffffffffff811115612e5857612e5761290a565b5b612e6485828601612ad7565b925050602083013567ffffffffffffffff811115612e8557612e8461290a565b5b612e9185828601612ad7565b9150509250929050565b600080600060408486031215612eb457612eb3612905565b5b6000612ec286828701612958565b935050602084013567ffffffffffffffff811115612ee357612ee261290a565b5b612eef86828701612d80565b92509250509250925092565b60008060008060608587031215612f1557612f14612905565b5b6000612f2387828801612958565b945050602085013567ffffffffffffffff811115612f4457612f4361290a565b5b612f5087828801612ad7565b935050604085013567ffffffffffffffff811115612f7157612f7061290a565b5b612f7d87828801612d80565b925092505092959194509250565b600081519050919050565b600082825260208201905092915050565b6000819050602082019050919050565b6000604083016000830151612fcf6000860182612bfc565b5060208301518482036020860152612fe78282612c35565b9150508091505092915050565b60006130008383612fb7565b905092915050565b6000602082019050919050565b600061302082612f8b565b61302a8185612f96565b93508360208202850161303c85612fa7565b8060005b8581101561307857848403895281516130598582612ff4565b945061306483613008565b925060208a01995050600181019050613040565b50829750879550505050505092915050565b600060208201905081810360008301526130a48184613015565b905092915050565b6000602082840312156130c2576130c1612905565b5b600082013567ffffffffffffffff8111156130e0576130df61290a565b5b6130ec84828501612ad7565b91505092915050565b600081519050919050565b600082825260208201905092915050565b6000819050602082019050919050565b600081519050919050565b600082825260208201905092915050565b6000819050602082019050919050565b60006131598383612bfc565b60208301905092915050565b6000602082019050919050565b600061317d82613121565b613187818561312c565b93506131928361313d565b8060005b838110156131c35781516131aa888261314d565b97506131b583613165565b925050600181019050613196565b5085935050505092915050565b600082825260208201905092915050565b60006131ec82612bd0565b6131f681856131d0565b93508360208202850161320885612bec565b8060005b8581101561324457848403895281516132258582612cbe565b945061323083612cd2565b925060208a0199505060018101905061320c565b50829750879550505050505092915050565b600060c08301600083015184820360008601526132738282612c35565b9150506020830151848203602086015261328d8282612c35565b915050604083015184820360408601526132a78282612c35565b91505060608301516132bc6060860182612bfc565b50608083015184820360808601526132d48282613172565b91505060a083015184820360a08601526132ee82826131e1565b9150508091505092915050565b60006133078383613256565b905092915050565b6000602082019050919050565b6000613327826130f5565b6133318185613100565b93508360208202850161334385613111565b8060005b8581101561337f578484038952815161336085826132fb565b945061336b8361330f565b925060208a01995050600181019050613347565b50829750879550505050505092915050565b600060208201905081810360008301526133ab818461331c565b905092915050565b7f4e487b7100000000000000000000000000000000000000000000000000000000600052602260045260246000fd5b600060028204905060018216806133fa57607f821691505b60208210810361340d5761340c6133b3565b5b50919050565b7f43726561746520616e206163636f756e74206669727374210000000000000000600082015250565b600061344960188361284b565b915061345482613413565b602082019050919050565b600060208201905081810360008301526134788161343c565b9050919050565b7f55736572206973206e6f74207265676973746572656421000000000000000000600082015250565b60006134b560178361284b565b91506134c08261347f565b602082019050919050565b600060208201905081810360008301526134e4816134a8565b9050919050565b7f55736572732063616e6e6f742061646420796f757273656c6620616761696e21600082015250565b600061352160208361284b565b915061352c826134eb565b602082019050919050565b6000602082019050818103600083015261355081613514565b9050919050565b600081905092915050565b600061356d82612840565b6135778185613557565b935061358781856020860161285c565b80840191505092915050565b600061359f8284613562565b915081905092915050565b7f4e487b7100000000000000000000000000000000000000000000000000000000600052603260045260246000fd5b60008190508160005260206000209050919050565b600081546135fb816133e2565b6136058186613557565b94506001821660008114613620576001811461363157613664565b60ff19831686528186019350613664565b61363a856135d9565b60005b8381101561365c5781548189015260018201915060208101905061363d565b838801955050505b50505092915050565b600061367982846135ee565b915081905092915050565b7f4e487b7100000000000000000000000000000000000000000000000000000000600052601160045260246000fd5b60006136be82612c0b565b91507fffffffffffffffffffffffffffffffffffffffffffffffffffffffffffffffff82036136f0576136ef613684565b5b600182019050919050565b7f596f7520617265206e6f7420616e2061646d696e206f6620746869732067726f60008201527f7570000000000000000000000000000000000000000000000000000000000000602082015250565b600061375760228361284b565b9150613762826136fb565b604082019050919050565b600060208201905081810360008301526137868161374a565b9050919050565b7f5573657220616c72656164792065786973747321000000000000000000000000600082015250565b60006137c360148361284b565b91506137ce8261378d565b602082019050919050565b600060208201905081810360008301526137f2816137b6565b9050919050565b7f55736572204e616d652063616e6e6f7420626520656d70747921000000000000600082015250565b600061382f601a8361284b565b915061383a826137f9565b602082019050919050565b6000602082019050818103600083015261385e81613822565b9050919050565b7f55736572732063616e6e6f7420616464207468656d73656c766573206173206160008201527f20667269656e6421000000000000000000000000000000000000000000000000602082015250565b60006138c160288361284b565b91506138cc82613865565b604082019050919050565b600060208201905081810360008301526138f0816138b4565b9050919050565b7f54686573652075736572732061726520616c726561647920667269656e647321600082015250565b600061392d60208361284b565b9150613938826138f7565b602082019050919050565b6000602082019050818103600083015261395c81613920565b9050919050565b7f596f7520617265206e6f742061646d696e000000000000000000000000000000600082015250565b600061399960118361284b565b91506139a482613963565b602082019050919050565b600060208201905081810360008301526139c88161398c565b9050919050565b7f596f7520617265206e6f7420667269656e64732077697468207468652067697660008201527f656e207573657200000000000000000000000000000000000000000000000000602082015250565b6000613a2b60278361284b565b9150613a36826139cf565b604082019050919050565b60006020820190508181036000830152613a5a81613a1e565b9050919050565b60008160601b9050919050565b6000613a7982613a61565b9050919050565b6000613a8b82613a6e565b9050919050565b613aa3613a9e8261292f565b613a80565b82525050565b6000613ab58285613a92565b601482019150613ac58284613a92565b601482019150819050939250505056fea2646970667358221220da1a7cfd6928341030a21696e8459b7f08433ad9122a3f2386159f66515fd6e364736f6c634300080d0033",
  "immutableReferences": {},
  "source": "pragma solidity >=0.7.0 <0.9.0;\n\ncontract Database {\n\n    struct User {\n        string userName;\n        string about;\n        string userId;\n        string profilePhoto;\n        address ethereumAddress;\n        Friend[] friendList;\n        Group[] groupList;\n        Settings settings;\n    }\n\n    struct Friend {\n        address pubkey;\n        string name;\n    }\n\n    struct Message {\n        address sender;\n        uint256 timestamp;\n        string data;\n    }\n\n    struct Group {\n        string groupName;\n        string groupAbout;\n        string groupPhoto;\n        address admin;\n        address[] membersArray;\n        Message[] messages;\n    }\n\n    struct Settings{\n        string wallpaper;\n        bool theme;\n    }\n\n    //Group[] public allGroups;\n    mapping(address => User) userList;\n    mapping(bytes32 => Message[]) allMessages;\n\n    function checkUserExists(address pubkey) public view returns(bool) {\n        return bytes(userList[pubkey].userName).length > 0;\n    }\n\n    function getUserName(address pubkey) external view returns(string memory) {\n        require(checkUserExists(pubkey), \"User is not registered!\");\n        return userList[pubkey].userName;\n    }\n\n    function createAccount(string calldata userName) external {\n        require(checkUserExists(msg.sender)==false, \"User already exists!\");\n        require(bytes(userName).length>0, \"User Name cannot be empty!\"); \n        userList[msg.sender].userName = userName;\n    }\n\n    function checkAlreadyFriends(address pubkey1, address pubkey2) internal view returns(bool) {\n        if(userList[pubkey1].friendList.length > userList[pubkey2].friendList.length){\n            address tmp = pubkey1;\n            pubkey1 = pubkey2;\n            pubkey2 = tmp;\n        }\n\n        for(uint i=0; i<userList[pubkey1].friendList.length; ++i){\n            if(userList[pubkey1].friendList[i].pubkey == pubkey2)\n                return true;\n        }\n        return false;\n    }\n\n    function addFriend(address friend_key, string calldata userName) external {\n        require(checkUserExists(msg.sender), \"Create an account first!\");\n        require(checkUserExists(friend_key), \"User is not registered!\");\n        require(msg.sender!=friend_key, \"Users cannot add themselves as a friend!\");\n        require(checkAlreadyFriends(msg.sender,friend_key)==false, \"These users are already friends!\");\n\n        _addFriend(msg.sender, friend_key, userName);\n        _addFriend(friend_key, msg.sender, userList[msg.sender].userName);\n    }\n\n    function _addFriend(address me, address friend_key, string memory userName) internal {\n        Friend memory newFriend = Friend(friend_key, userName);\n        userList[me].friendList.push(newFriend);\n    }\n\n    function getMyFriendList() external view returns(Friend[] memory) {\n        return userList[msg.sender].friendList;\n    }\n\n    function _getChatCode(address pubkey1, address pubkey2) internal pure returns(bytes32) {\n        if(pubkey1 < pubkey2)\n            return keccak256(abi.encodePacked(pubkey1, pubkey2));\n        else\n            return keccak256(abi.encodePacked(pubkey2, pubkey1));\n    }\n\n    function sendMessage(address friend_key, string calldata _msg) external {\n        require(checkUserExists(msg.sender), \"Create an account first!\");\n        require(checkUserExists(friend_key), \"User is not registered!\");\n        require(checkAlreadyFriends(msg.sender,friend_key), \"You are not friends with the given user\");\n\n        bytes32 chatCode = _getChatCode(msg.sender, friend_key);\n        Message memory newMsg = Message(msg.sender, block.timestamp, _msg);\n        allMessages[chatCode].push(newMsg);\n    }\n\n    function readMessage(address friend_key) external view returns(Message[] memory) {\n        bytes32 chatCode = _getChatCode(msg.sender, friend_key);\n        return allMessages[chatCode];\n    }\n\n    //Group functions\n    function addGroup(string memory name, string memory about) public {\n        require(checkUserExists(msg.sender), \"Create an account first!\");\n        uint n = userList[msg.sender].groupList.length;\n        userList[msg.sender].groupList[n].groupName = name;\n        userList[msg.sender].groupList[n].admin = msg.sender;\n        userList[msg.sender].groupList[n].groupAbout = about;\n        userList[msg.sender].groupList[n].groupPhoto = \"\";\n        uint m = userList[msg.sender].groupList[n].membersArray.length;\n        userList[msg.sender].groupList[n].membersArray[m] = msg.sender;\n    }\n    \n    function getMyGroupList() external view returns(Group[] memory) {\n        return userList[msg.sender].groupList;\n    }\n\n    function addGroupMembers(address me, string memory name, address newMember) public {\n        require(checkUserExists(msg.sender), \"Create an account first!\");\n        require(checkUserExists(newMember), \"User is not registered!\");\n        require(msg.sender!=newMember, \"Users cannot add yourself again!\");\n        uint i = 0;\n        for(i = 0; i < userList[me].groupList.length; ++i){\n            if(keccak256(abi.encodePacked(userList[me].groupList[i].groupName)) == keccak256(abi.encodePacked(name))){\n                break;\n            }\n        }\n        require(userList[me].groupList[i].admin == msg.sender, \"You are not an admin of this group\");\n        userList[me].groupList[i].membersArray.push(newMember);\n    }\n\n    function removeGroupMembers(address me, string memory name, address memberToRemove) public {\n        uint i = 0;\n        for(i = 0; i < userList[me].groupList.length; ++i){\n            if(keccak256(abi.encodePacked(userList[me].groupList[i].groupName)) == keccak256(abi.encodePacked(name))){\n                break;\n            }\n        }\n        require(userList[me].groupList[i].admin == msg.sender, \"You are not admin\");\n        uint j = 0;\n        for(j = 0; j < userList[me].groupList[i].membersArray.length; ++j){\n            if(userList[me].groupList[i].membersArray[j] == memberToRemove){\n                break;\n            }\n        }\n        delete userList[me].groupList[i].membersArray[j];\n    }\n\n    function sendMessageGroup(address me, string memory name, string calldata _msg) external {\n        uint i = 0;\n        for(i = 0; i < userList[me].groupList.length; ++i){\n            if(keccak256(abi.encodePacked(userList[me].groupList[i].groupName)) == keccak256(abi.encodePacked(name))){\n                break;\n            }\n        }\n        Message memory newMsg = Message(msg.sender, block.timestamp, _msg);\n        userList[me].groupList[i].messages.push(newMsg);\n    }\n\n    function readMessageGroup(address me, string memory name) external view returns(Message[] memory) {\n        uint i = 0;\n        for(i = 0; i < userList[me].groupList.length; ++i){\n            if(keccak256(abi.encodePacked(userList[me].groupList[i].groupName)) == keccak256(abi.encodePacked(name))){\n                break;\n            }\n        }\n        return userList[me].groupList[i].messages;\n    }\n\n    function setWallpaper(string memory url) external {\n        userList[msg.sender].settings.wallpaper = url;\n    }\n\n    function getMyWallpaper() external view returns(string memory) {\n        return userList[msg.sender].settings.wallpaper;\n    }\n}",
  "sourcePath": "/home/ritik/Desktop/TY files/Sem 6/SE/Samvad/src/contracts/Database.sol",
  "compiler": {
    "name": "solc",
    "version": "0.8.13+commit.abaa5c0e.Emscripten.clang"
  },
  "schemaVersion": "3.4.6",
  "updatedAt": "2022-04-06T21:26:41.770Z",
  "devdoc": {
    "kind": "dev",
    "methods": {},
    "version": 1
  },
  "userdoc": {
    "kind": "user",
    "methods": {},
    "version": 1
  }
}