{
  "contractName": "Database",
  "abi": [
    {
      "inputs": [
        {
          "internalType": "address",
          "name": "pubkey",
          "type": "address"
        }
      ],
      "name": "checkUserExists",
      "outputs": [
        {
          "internalType": "bool",
          "name": "",
          "type": "bool"
        }
      ],
      "stateMutability": "view",
      "type": "function",
      "constant": true
    },
    {
      "inputs": [
        {
          "internalType": "address",
          "name": "pubkey",
          "type": "address"
        }
      ],
      "name": "getUserName",
      "outputs": [
        {
          "internalType": "string",
          "name": "",
          "type": "string"
        }
      ],
      "stateMutability": "view",
      "type": "function",
      "constant": true
    },
    {
      "inputs": [
        {
          "internalType": "string",
          "name": "userName",
          "type": "string"
        }
      ],
      "name": "createAccount",
      "outputs": [],
      "stateMutability": "nonpayable",
      "type": "function"
    },
    {
      "inputs": [
        {
          "internalType": "address",
          "name": "friend_key",
          "type": "address"
        },
        {
          "internalType": "string",
          "name": "userName",
          "type": "string"
        }
      ],
      "name": "addFriend",
      "outputs": [],
      "stateMutability": "nonpayable",
      "type": "function"
    },
    {
      "inputs": [],
      "name": "getMyFriendList",
      "outputs": [
        {
          "components": [
            {
              "internalType": "address",
              "name": "pubkey",
              "type": "address"
            },
            {
              "internalType": "string",
              "name": "name",
              "type": "string"
            }
          ],
          "internalType": "struct Database.Friend[]",
          "name": "",
          "type": "tuple[]"
        }
      ],
      "stateMutability": "view",
      "type": "function",
      "constant": true
    },
    {
      "inputs": [
        {
          "internalType": "address",
          "name": "friend_key",
          "type": "address"
        },
        {
          "internalType": "string",
          "name": "_msg",
          "type": "string"
        }
      ],
      "name": "sendMessage",
      "outputs": [],
      "stateMutability": "nonpayable",
      "type": "function"
    },
    {
      "inputs": [
        {
          "internalType": "address",
          "name": "friend_key",
          "type": "address"
        }
      ],
      "name": "readMessage",
      "outputs": [
        {
          "components": [
            {
              "internalType": "address",
              "name": "sender",
              "type": "address"
            },
            {
              "internalType": "uint256",
              "name": "timestamp",
              "type": "uint256"
            },
            {
              "internalType": "string",
              "name": "data",
              "type": "string"
            }
          ],
          "internalType": "struct Database.Message[]",
          "name": "",
          "type": "tuple[]"
        }
      ],
      "stateMutability": "view",
      "type": "function",
      "constant": true
    },
    {
      "inputs": [
        {
          "internalType": "string",
          "name": "name",
          "type": "string"
        },
        {
          "internalType": "string",
          "name": "about",
          "type": "string"
        }
      ],
      "name": "addGroup",
      "outputs": [],
      "stateMutability": "nonpayable",
      "type": "function"
    },
    {
      "inputs": [],
      "name": "getMyGroupList",
      "outputs": [
        {
          "components": [
            {
              "internalType": "string",
              "name": "groupName",
              "type": "string"
            },
            {
              "internalType": "string",
              "name": "groupAbout",
              "type": "string"
            },
            {
              "internalType": "string",
              "name": "groupPhoto",
              "type": "string"
            },
            {
              "internalType": "address",
              "name": "admin",
              "type": "address"
            },
            {
              "internalType": "address[]",
              "name": "membersArray",
              "type": "address[]"
            },
            {
              "components": [
                {
                  "internalType": "address",
                  "name": "sender",
                  "type": "address"
                },
                {
                  "internalType": "uint256",
                  "name": "timestamp",
                  "type": "uint256"
                },
                {
                  "internalType": "string",
                  "name": "data",
                  "type": "string"
                }
              ],
              "internalType": "struct Database.Message[]",
              "name": "messages",
              "type": "tuple[]"
            }
          ],
          "internalType": "struct Database.Group[]",
          "name": "",
          "type": "tuple[]"
        }
      ],
      "stateMutability": "view",
      "type": "function",
      "constant": true
    },
    {
      "inputs": [
        {
          "internalType": "address",
          "name": "me",
          "type": "address"
        },
        {
          "internalType": "string",
          "name": "name",
          "type": "string"
        },
        {
          "internalType": "address",
          "name": "newMember",
          "type": "address"
        }
      ],
      "name": "addGroupMembers",
      "outputs": [],
      "stateMutability": "nonpayable",
      "type": "function"
    },
    {
      "inputs": [
        {
          "internalType": "address",
          "name": "me",
          "type": "address"
        },
        {
          "internalType": "string",
          "name": "name",
          "type": "string"
        },
        {
          "internalType": "address",
          "name": "memberToRemove",
          "type": "address"
        }
      ],
      "name": "removeGroupMembers",
      "outputs": [],
      "stateMutability": "nonpayable",
      "type": "function"
    },
    {
      "inputs": [
        {
          "internalType": "address",
          "name": "me",
          "type": "address"
        },
        {
          "internalType": "string",
          "name": "name",
          "type": "string"
        },
        {
          "internalType": "string",
          "name": "_msg",
          "type": "string"
        }
      ],
      "name": "sendMessageGroup",
      "outputs": [],
      "stateMutability": "nonpayable",
      "type": "function"
    },
    {
      "inputs": [
        {
          "internalType": "address",
          "name": "me",
          "type": "address"
        },
        {
          "internalType": "string",
          "name": "name",
          "type": "string"
        }
      ],
      "name": "readMessageGroup",
      "outputs": [
        {
          "components": [
            {
              "internalType": "address",
              "name": "sender",
              "type": "address"
            },
            {
              "internalType": "uint256",
              "name": "timestamp",
              "type": "uint256"
            },
            {
              "internalType": "string",
              "name": "data",
              "type": "string"
            }
          ],
          "internalType": "struct Database.Message[]",
          "name": "",
          "type": "tuple[]"
        }
      ],
      "stateMutability": "view",
      "type": "function",
      "constant": true
    }
  ],
  "bytecode": "0x608060405234801561001057600080fd5b50613932806100206000396000f3fe608060405234801561001057600080fd5b50600436106100cf5760003560e01c80633b9f708d1161008c578063bd0f4d0d11610066578063bd0f4d0d1461020c578063d84f55ee1461022a578063de6f24bb1461025a578063fa6fbff914610276576100cf565b80633b9f708d146101b8578063606a6092146101d45780636a064e5c146101f0576100cf565b8063133f50f5146100d457806314ae06de146101045780631f78afa414610120578063255e9c1114610150578063298daf5b146101805780633775bf1b1461019c575b600080fd5b6100ee60048036038101906100e99190612722565b610294565b6040516100fb919061276a565b60405180910390f35b61011e600480360381019061011991906128cb565b6102ed565b005b61013a6004803603810190610135919061293a565b6106bf565b6040516101479190612b58565b60405180910390f35b61016a60048036038101906101659190612722565b61098d565b6040516101779190612b58565b60405180910390f35b61019a60048036038101906101959190612bda565b610b00565b005b6101b660048036038101906101b19190612c27565b610bea565b005b6101d260048036038101906101cd9190612c9f565b610fc9565b005b6101ee60048036038101906101e991906128cb565b61123f565b005b61020a60048036038101906102059190612cff565b611649565b005b6102146118df565b6040516102219190612e8e565b60405180910390f35b610244600480360381019061023f9190612722565b611a65565b6040516102519190612efa565b60405180910390f35b610274600480360381019061026f9190612c9f565b611b80565b005b61027e611d94565b60405161028b91906131b8565b60405180910390f35b6000806000808473ffffffffffffffffffffffffffffffffffffffff1673ffffffffffffffffffffffffffffffffffffffff16815260200190815260200160002060000180546102e390613209565b9050119050919050565b6102f633610294565b610335576040517f08c379a000000000000000000000000000000000000000000000000000000000815260040161032c90613286565b60405180910390fd5b61033e81610294565b61037d576040517f08c379a0000000000000000000000000000000000000000000000000000000008152600401610374906132f2565b60405180910390fd5b8073ffffffffffffffffffffffffffffffffffffffff163373ffffffffffffffffffffffffffffffffffffffff16036103eb576040517f08c379a00000000000000000000000000000000000000000000000000000000081526004016103e29061335e565b60405180910390fd5b60005b6000808573ffffffffffffffffffffffffffffffffffffffff1673ffffffffffffffffffffffffffffffffffffffff16815260200190815260200160002060060180549050811015610502578260405160200161044b91906133ba565b604051602081830303815290604052805190602001206000808673ffffffffffffffffffffffffffffffffffffffff1673ffffffffffffffffffffffffffffffffffffffff16815260200190815260200160002060060182815481106104b4576104b36133d1565b5b90600052602060002090600602016000016040516020016104d59190613494565b60405160208183030381529060405280519060200120031561050257806104fb906134da565b90506103ee565b3373ffffffffffffffffffffffffffffffffffffffff166000808673ffffffffffffffffffffffffffffffffffffffff1673ffffffffffffffffffffffffffffffffffffffff168152602001908152602001600020600601828154811061056c5761056b6133d1565b5b906000526020600020906006020160030160009054906101000a900473ffffffffffffffffffffffffffffffffffffffff1673ffffffffffffffffffffffffffffffffffffffff16146105f4576040517f08c379a00000000000000000000000000000000000000000000000000000000081526004016105eb90613594565b60405180910390fd5b6000808573ffffffffffffffffffffffffffffffffffffffff1673ffffffffffffffffffffffffffffffffffffffff1681526020019081526020016000206006018181548110610647576106466133d1565b5b9060005260206000209060060201600401829080600181540180825580915050600190039060005260206000200160009091909190916101000a81548173ffffffffffffffffffffffffffffffffffffffff021916908373ffffffffffffffffffffffffffffffffffffffff16021790555050505050565b606060005b6000808573ffffffffffffffffffffffffffffffffffffffff1673ffffffffffffffffffffffffffffffffffffffff168152602001908152602001600020600601805490508110156107d8578260405160200161072191906133ba565b604051602081830303815290604052805190602001206000808673ffffffffffffffffffffffffffffffffffffffff1673ffffffffffffffffffffffffffffffffffffffff168152602001908152602001600020600601828154811061078a576107896133d1565b5b90600052602060002090600602016000016040516020016107ab9190613494565b6040516020818303038152906040528051906020012003156107d857806107d1906134da565b90506106c4565b6000808573ffffffffffffffffffffffffffffffffffffffff1673ffffffffffffffffffffffffffffffffffffffff168152602001908152602001600020600601818154811061082b5761082a6133d1565b5b9060005260206000209060060201600501805480602002602001604051908101604052809291908181526020016000905b8282101561098057838290600052602060002090600302016040518060600160405290816000820160009054906101000a900473ffffffffffffffffffffffffffffffffffffffff1673ffffffffffffffffffffffffffffffffffffffff1673ffffffffffffffffffffffffffffffffffffffff168152602001600182015481526020016002820180546108ef90613209565b80601f016020809104026020016040519081016040528092919081815260200182805461091b90613209565b80156109685780601f1061093d57610100808354040283529160200191610968565b820191906000526020600020905b81548152906001019060200180831161094b57829003601f168201915b5050505050815250508152602001906001019061085c565b5050505091505092915050565b6060600061099b338461221d565b905060016000828152602001908152602001600020805480602002602001604051908101604052809291908181526020016000905b82821015610af457838290600052602060002090600302016040518060600160405290816000820160009054906101000a900473ffffffffffffffffffffffffffffffffffffffff1673ffffffffffffffffffffffffffffffffffffffff1673ffffffffffffffffffffffffffffffffffffffff16815260200160018201548152602001600282018054610a6390613209565b80601f0160208091040260200160405190810160405280929190818152602001828054610a8f90613209565b8015610adc5780601f10610ab157610100808354040283529160200191610adc565b820191906000526020600020905b815481529060010190602001808311610abf57829003601f168201915b505050505081525050815260200190600101906109d0565b50505050915050919050565b60001515610b0d33610294565b151514610b4f576040517f08c379a0000000000000000000000000000000000000000000000000000000008152600401610b4690613600565b60405180910390fd5b60008282905011610b95576040517f08c379a0000000000000000000000000000000000000000000000000000000008152600401610b8c9061366c565b60405180910390fd5b81816000803373ffffffffffffffffffffffffffffffffffffffff1673ffffffffffffffffffffffffffffffffffffffff1681526020019081526020016000206000019190610be5929190612587565b505050565b610bf333610294565b610c32576040517f08c379a0000000000000000000000000000000000000000000000000000000008152600401610c2990613286565b60405180910390fd5b60008060003373ffffffffffffffffffffffffffffffffffffffff1673ffffffffffffffffffffffffffffffffffffffff168152602001908152602001600020600601805490509050826000803373ffffffffffffffffffffffffffffffffffffffff1673ffffffffffffffffffffffffffffffffffffffff1681526020019081526020016000206006018281548110610ccf57610cce6133d1565b5b90600052602060002090600602016000019080519060200190610cf392919061260d565b50336000803373ffffffffffffffffffffffffffffffffffffffff1673ffffffffffffffffffffffffffffffffffffffff1681526020019081526020016000206006018281548110610d4857610d476133d1565b5b906000526020600020906006020160030160006101000a81548173ffffffffffffffffffffffffffffffffffffffff021916908373ffffffffffffffffffffffffffffffffffffffff160217905550816000803373ffffffffffffffffffffffffffffffffffffffff1673ffffffffffffffffffffffffffffffffffffffff1681526020019081526020016000206006018281548110610deb57610dea6133d1565b5b90600052602060002090600602016001019080519060200190610e0f92919061260d565b50604051806020016040528060008152506000803373ffffffffffffffffffffffffffffffffffffffff1673ffffffffffffffffffffffffffffffffffffffff1681526020019081526020016000206006018281548110610e7357610e726133d1565b5b90600052602060002090600602016002019080519060200190610e9792919061260d565b5060008060003373ffffffffffffffffffffffffffffffffffffffff1673ffffffffffffffffffffffffffffffffffffffff1681526020019081526020016000206006018281548110610eed57610eec6133d1565b5b9060005260206000209060060201600401805490509050336000803373ffffffffffffffffffffffffffffffffffffffff1673ffffffffffffffffffffffffffffffffffffffff1681526020019081526020016000206006018381548110610f5857610f576133d1565b5b90600052602060002090600602016004018281548110610f7b57610f7a6133d1565b5b9060005260206000200160006101000a81548173ffffffffffffffffffffffffffffffffffffffff021916908373ffffffffffffffffffffffffffffffffffffffff16021790555050505050565b610fd233610294565b611011576040517f08c379a000000000000000000000000000000000000000000000000000000000815260040161100890613286565b60405180910390fd5b61101a83610294565b611059576040517f08c379a0000000000000000000000000000000000000000000000000000000008152600401611050906132f2565b60405180910390fd5b8273ffffffffffffffffffffffffffffffffffffffff163373ffffffffffffffffffffffffffffffffffffffff16036110c7576040517f08c379a00000000000000000000000000000000000000000000000000000000081526004016110be906136fe565b60405180910390fd5b600015156110d533856122b5565b151514611117576040517f08c379a000000000000000000000000000000000000000000000000000000000815260040161110e9061376a565b60405180910390fd5b611166338484848080601f016020809104026020016040519081016040528093929190818152602001838380828437600081840152601f19601f82011690508083019250505050505050612481565b61123a83336000803373ffffffffffffffffffffffffffffffffffffffff1673ffffffffffffffffffffffffffffffffffffffff16815260200190815260200160002060000180546111b790613209565b80601f01602080910402602001604051908101604052809291908181526020018280546111e390613209565b80156112305780601f1061120557610100808354040283529160200191611230565b820191906000526020600020905b81548152906001019060200180831161121357829003601f168201915b5050505050612481565b505050565b60005b6000808573ffffffffffffffffffffffffffffffffffffffff1673ffffffffffffffffffffffffffffffffffffffff16815260200190815260200160002060060180549050811015611356578260405160200161129f91906133ba565b604051602081830303815290604052805190602001206000808673ffffffffffffffffffffffffffffffffffffffff1673ffffffffffffffffffffffffffffffffffffffff1681526020019081526020016000206006018281548110611308576113076133d1565b5b90600052602060002090600602016000016040516020016113299190613494565b604051602081830303815290604052805190602001200315611356578061134f906134da565b9050611242565b3373ffffffffffffffffffffffffffffffffffffffff166000808673ffffffffffffffffffffffffffffffffffffffff1673ffffffffffffffffffffffffffffffffffffffff16815260200190815260200160002060060182815481106113c0576113bf6133d1565b5b906000526020600020906006020160030160009054906101000a900473ffffffffffffffffffffffffffffffffffffffff1673ffffffffffffffffffffffffffffffffffffffff1614611448576040517f08c379a000000000000000000000000000000000000000000000000000000000815260040161143f906137d6565b60405180910390fd5b60005b6000808673ffffffffffffffffffffffffffffffffffffffff1673ffffffffffffffffffffffffffffffffffffffff168152602001908152602001600020600601828154811061149e5761149d6133d1565b5b90600052602060002090600602016004018054905081101561159f578273ffffffffffffffffffffffffffffffffffffffff166000808773ffffffffffffffffffffffffffffffffffffffff1673ffffffffffffffffffffffffffffffffffffffff1681526020019081526020016000206006018381548110611524576115236133d1565b5b90600052602060002090600602016004018281548110611547576115466133d1565b5b9060005260206000200160009054906101000a900473ffffffffffffffffffffffffffffffffffffffff1673ffffffffffffffffffffffffffffffffffffffff16031561159f5780611598906134da565b905061144b565b6000808673ffffffffffffffffffffffffffffffffffffffff1673ffffffffffffffffffffffffffffffffffffffff16815260200190815260200160002060060182815481106115f2576115f16133d1565b5b90600052602060002090600602016004018181548110611615576116146133d1565b5b9060005260206000200160006101000a81549073ffffffffffffffffffffffffffffffffffffffff02191690555050505050565b60005b6000808673ffffffffffffffffffffffffffffffffffffffff1673ffffffffffffffffffffffffffffffffffffffff1681526020019081526020016000206006018054905081101561176057836040516020016116a991906133ba565b604051602081830303815290604052805190602001206000808773ffffffffffffffffffffffffffffffffffffffff1673ffffffffffffffffffffffffffffffffffffffff1681526020019081526020016000206006018281548110611712576117116133d1565b5b90600052602060002090600602016000016040516020016117339190613494565b6040516020818303038152906040528051906020012003156117605780611759906134da565b905061164c565b600060405180606001604052803373ffffffffffffffffffffffffffffffffffffffff16815260200142815260200185858080601f016020809104026020016040519081016040528093929190818152602001838380828437600081840152601f19601f8201169050808301925050505050505081525090506000808773ffffffffffffffffffffffffffffffffffffffff1673ffffffffffffffffffffffffffffffffffffffff168152602001908152602001600020600601828154811061182c5761182b6133d1565b5b906000526020600020906006020160050181908060018154018082558091505060019003906000526020600020906003020160009091909190915060008201518160000160006101000a81548173ffffffffffffffffffffffffffffffffffffffff021916908373ffffffffffffffffffffffffffffffffffffffff1602179055506020820151816001015560408201518160020190805190602001906118d492919061260d565b505050505050505050565b60606000803373ffffffffffffffffffffffffffffffffffffffff1673ffffffffffffffffffffffffffffffffffffffff168152602001908152602001600020600501805480602002602001604051908101604052809291908181526020016000905b82821015611a5c57838290600052602060002090600202016040518060400160405290816000820160009054906101000a900473ffffffffffffffffffffffffffffffffffffffff1673ffffffffffffffffffffffffffffffffffffffff1673ffffffffffffffffffffffffffffffffffffffff1681526020016001820180546119cb90613209565b80601f01602080910402602001604051908101604052809291908181526020018280546119f790613209565b8015611a445780601f10611a1957610100808354040283529160200191611a44565b820191906000526020600020905b815481529060010190602001808311611a2757829003601f168201915b50505050508152505081526020019060010190611942565b50505050905090565b6060611a7082610294565b611aaf576040517f08c379a0000000000000000000000000000000000000000000000000000000008152600401611aa6906132f2565b60405180910390fd5b6000808373ffffffffffffffffffffffffffffffffffffffff1673ffffffffffffffffffffffffffffffffffffffff1681526020019081526020016000206000018054611afb90613209565b80601f0160208091040260200160405190810160405280929190818152602001828054611b2790613209565b8015611b745780601f10611b4957610100808354040283529160200191611b74565b820191906000526020600020905b815481529060010190602001808311611b5757829003601f168201915b50505050509050919050565b611b8933610294565b611bc8576040517f08c379a0000000000000000000000000000000000000000000000000000000008152600401611bbf90613286565b60405180910390fd5b611bd183610294565b611c10576040517f08c379a0000000000000000000000000000000000000000000000000000000008152600401611c07906132f2565b60405180910390fd5b611c1a33846122b5565b611c59576040517f08c379a0000000000000000000000000000000000000000000000000000000008152600401611c5090613868565b60405180910390fd5b6000611c65338561221d565b9050600060405180606001604052803373ffffffffffffffffffffffffffffffffffffffff16815260200142815260200185858080601f016020809104026020016040519081016040528093929190818152602001838380828437600081840152601f19601f8201169050808301925050505050505081525090506001600083815260200190815260200160002081908060018154018082558091505060019003906000526020600020906003020160009091909190915060008201518160000160006101000a81548173ffffffffffffffffffffffffffffffffffffffff021916908373ffffffffffffffffffffffffffffffffffffffff160217905550602082015181600101556040820151816002019080519060200190611d8a92919061260d565b5050505050505050565b60606000803373ffffffffffffffffffffffffffffffffffffffff1673ffffffffffffffffffffffffffffffffffffffff168152602001908152602001600020600601805480602002602001604051908101604052809291908181526020016000905b8282101561221457838290600052602060002090600602016040518060c0016040529081600082018054611e2a90613209565b80601f0160208091040260200160405190810160405280929190818152602001828054611e5690613209565b8015611ea35780601f10611e7857610100808354040283529160200191611ea3565b820191906000526020600020905b815481529060010190602001808311611e8657829003601f168201915b50505050508152602001600182018054611ebc90613209565b80601f0160208091040260200160405190810160405280929190818152602001828054611ee890613209565b8015611f355780601f10611f0a57610100808354040283529160200191611f35565b820191906000526020600020905b815481529060010190602001808311611f1857829003601f168201915b50505050508152602001600282018054611f4e90613209565b80601f0160208091040260200160405190810160405280929190818152602001828054611f7a90613209565b8015611fc75780601f10611f9c57610100808354040283529160200191611fc7565b820191906000526020600020905b815481529060010190602001808311611faa57829003601f168201915b505050505081526020016003820160009054906101000a900473ffffffffffffffffffffffffffffffffffffffff1673ffffffffffffffffffffffffffffffffffffffff1673ffffffffffffffffffffffffffffffffffffffff168152602001600482018054806020026020016040519081016040528092919081815260200182805480156120ab57602002820191906000526020600020905b8160009054906101000a900473ffffffffffffffffffffffffffffffffffffffff1673ffffffffffffffffffffffffffffffffffffffff1681526020019060010190808311612061575b5050505050815260200160058201805480602002602001604051908101604052809291908181526020016000905b828210156121fd57838290600052602060002090600302016040518060600160405290816000820160009054906101000a900473ffffffffffffffffffffffffffffffffffffffff1673ffffffffffffffffffffffffffffffffffffffff1673ffffffffffffffffffffffffffffffffffffffff1681526020016001820154815260200160028201805461216c90613209565b80601f016020809104026020016040519081016040528092919081815260200182805461219890613209565b80156121e55780601f106121ba576101008083540402835291602001916121e5565b820191906000526020600020905b8154815290600101906020018083116121c857829003601f168201915b505050505081525050815260200190600101906120d9565b505050508152505081526020019060010190611df7565b50505050905090565b60008173ffffffffffffffffffffffffffffffffffffffff168373ffffffffffffffffffffffffffffffffffffffff1610156122835782826040516020016122669291906138d0565b6040516020818303038152906040528051906020012090506122af565b81836040516020016122969291906138d0565b6040516020818303038152906040528051906020012090505b92915050565b60008060008373ffffffffffffffffffffffffffffffffffffffff1673ffffffffffffffffffffffffffffffffffffffff168152602001908152602001600020600501805490506000808573ffffffffffffffffffffffffffffffffffffffff1673ffffffffffffffffffffffffffffffffffffffff168152602001908152602001600020600501805490501115612354576000839050829350809250505b60005b6000808573ffffffffffffffffffffffffffffffffffffffff1673ffffffffffffffffffffffffffffffffffffffff16815260200190815260200160002060050180549050811015612475578273ffffffffffffffffffffffffffffffffffffffff166000808673ffffffffffffffffffffffffffffffffffffffff1673ffffffffffffffffffffffffffffffffffffffff168152602001908152602001600020600501828154811061240d5761240c6133d1565b5b906000526020600020906002020160000160009054906101000a900473ffffffffffffffffffffffffffffffffffffffff1673ffffffffffffffffffffffffffffffffffffffff160361246457600191505061247b565b8061246e906134da565b9050612357565b50600090505b92915050565b600060405180604001604052808473ffffffffffffffffffffffffffffffffffffffff1681526020018381525090506000808573ffffffffffffffffffffffffffffffffffffffff1673ffffffffffffffffffffffffffffffffffffffff16815260200190815260200160002060050181908060018154018082558091505060019003906000526020600020906002020160009091909190915060008201518160000160006101000a81548173ffffffffffffffffffffffffffffffffffffffff021916908373ffffffffffffffffffffffffffffffffffffffff160217905550602082015181600101908051906020019061257e92919061260d565b50505050505050565b82805461259390613209565b90600052602060002090601f0160209004810192826125b557600085556125fc565b82601f106125ce57803560ff19168380011785556125fc565b828001600101855582156125fc579182015b828111156125fb5782358255916020019190600101906125e0565b5b5090506126099190612693565b5090565b82805461261990613209565b90600052602060002090601f01602090048101928261263b5760008555612682565b82601f1061265457805160ff1916838001178555612682565b82800160010185558215612682579182015b82811115612681578251825591602001919060010190612666565b5b50905061268f9190612693565b5090565b5b808211156126ac576000816000905550600101612694565b5090565b6000604051905090565b600080fd5b600080fd5b600073ffffffffffffffffffffffffffffffffffffffff82169050919050565b60006126ef826126c4565b9050919050565b6126ff816126e4565b811461270a57600080fd5b50565b60008135905061271c816126f6565b92915050565b600060208284031215612738576127376126ba565b5b60006127468482850161270d565b91505092915050565b60008115159050919050565b6127648161274f565b82525050565b600060208201905061277f600083018461275b565b92915050565b600080fd5b600080fd5b6000601f19601f8301169050919050565b7f4e487b7100000000000000000000000000000000000000000000000000000000600052604160045260246000fd5b6127d88261278f565b810181811067ffffffffffffffff821117156127f7576127f66127a0565b5b80604052505050565b600061280a6126b0565b905061281682826127cf565b919050565b600067ffffffffffffffff821115612836576128356127a0565b5b61283f8261278f565b9050602081019050919050565b82818337600083830152505050565b600061286e6128698461281b565b612800565b90508281526020810184848401111561288a5761288961278a565b5b61289584828561284c565b509392505050565b600082601f8301126128b2576128b1612785565b5b81356128c284826020860161285b565b91505092915050565b6000806000606084860312156128e4576128e36126ba565b5b60006128f28682870161270d565b935050602084013567ffffffffffffffff811115612913576129126126bf565b5b61291f8682870161289d565b92505060406129308682870161270d565b9150509250925092565b60008060408385031215612951576129506126ba565b5b600061295f8582860161270d565b925050602083013567ffffffffffffffff8111156129805761297f6126bf565b5b61298c8582860161289d565b9150509250929050565b600081519050919050565b600082825260208201905092915050565b6000819050602082019050919050565b6129cb816126e4565b82525050565b6000819050919050565b6129e4816129d1565b82525050565b600081519050919050565b600082825260208201905092915050565b60005b83811015612a24578082015181840152602081019050612a09565b83811115612a33576000848401525b50505050565b6000612a44826129ea565b612a4e81856129f5565b9350612a5e818560208601612a06565b612a678161278f565b840191505092915050565b6000606083016000830151612a8a60008601826129c2565b506020830151612a9d60208601826129db565b5060408301518482036040860152612ab58282612a39565b9150508091505092915050565b6000612ace8383612a72565b905092915050565b6000602082019050919050565b6000612aee82612996565b612af881856129a1565b935083602082028501612b0a856129b2565b8060005b85811015612b465784840389528151612b278582612ac2565b9450612b3283612ad6565b925060208a01995050600181019050612b0e565b50829750879550505050505092915050565b60006020820190508181036000830152612b728184612ae3565b905092915050565b600080fd5b600080fd5b60008083601f840112612b9a57612b99612785565b5b8235905067ffffffffffffffff811115612bb757612bb6612b7a565b5b602083019150836001820283011115612bd357612bd2612b7f565b5b9250929050565b60008060208385031215612bf157612bf06126ba565b5b600083013567ffffffffffffffff811115612c0f57612c0e6126bf565b5b612c1b85828601612b84565b92509250509250929050565b60008060408385031215612c3e57612c3d6126ba565b5b600083013567ffffffffffffffff811115612c5c57612c5b6126bf565b5b612c688582860161289d565b925050602083013567ffffffffffffffff811115612c8957612c886126bf565b5b612c958582860161289d565b9150509250929050565b600080600060408486031215612cb857612cb76126ba565b5b6000612cc68682870161270d565b935050602084013567ffffffffffffffff811115612ce757612ce66126bf565b5b612cf386828701612b84565b92509250509250925092565b60008060008060608587031215612d1957612d186126ba565b5b6000612d278782880161270d565b945050602085013567ffffffffffffffff811115612d4857612d476126bf565b5b612d548782880161289d565b935050604085013567ffffffffffffffff811115612d7557612d746126bf565b5b612d8187828801612b84565b925092505092959194509250565b600081519050919050565b600082825260208201905092915050565b6000819050602082019050919050565b6000604083016000830151612dd360008601826129c2565b5060208301518482036020860152612deb8282612a39565b9150508091505092915050565b6000612e048383612dbb565b905092915050565b6000602082019050919050565b6000612e2482612d8f565b612e2e8185612d9a565b935083602082028501612e4085612dab565b8060005b85811015612e7c5784840389528151612e5d8582612df8565b9450612e6883612e0c565b925060208a01995050600181019050612e44565b50829750879550505050505092915050565b60006020820190508181036000830152612ea88184612e19565b905092915050565b600082825260208201905092915050565b6000612ecc826129ea565b612ed68185612eb0565b9350612ee6818560208601612a06565b612eef8161278f565b840191505092915050565b60006020820190508181036000830152612f148184612ec1565b905092915050565b600081519050919050565b600082825260208201905092915050565b6000819050602082019050919050565b600081519050919050565b600082825260208201905092915050565b6000819050602082019050919050565b6000612f8083836129c2565b60208301905092915050565b6000602082019050919050565b6000612fa482612f48565b612fae8185612f53565b9350612fb983612f64565b8060005b83811015612fea578151612fd18882612f74565b9750612fdc83612f8c565b925050600181019050612fbd565b5085935050505092915050565b600082825260208201905092915050565b600061301382612996565b61301d8185612ff7565b93508360208202850161302f856129b2565b8060005b8581101561306b578484038952815161304c8582612ac2565b945061305783612ad6565b925060208a01995050600181019050613033565b50829750879550505050505092915050565b600060c083016000830151848203600086015261309a8282612a39565b915050602083015184820360208601526130b48282612a39565b915050604083015184820360408601526130ce8282612a39565b91505060608301516130e360608601826129c2565b50608083015184820360808601526130fb8282612f99565b91505060a083015184820360a08601526131158282613008565b9150508091505092915050565b600061312e838361307d565b905092915050565b6000602082019050919050565b600061314e82612f1c565b6131588185612f27565b93508360208202850161316a85612f38565b8060005b858110156131a657848403895281516131878582613122565b945061319283613136565b925060208a0199505060018101905061316e565b50829750879550505050505092915050565b600060208201905081810360008301526131d28184613143565b905092915050565b7f4e487b7100000000000000000000000000000000000000000000000000000000600052602260045260246000fd5b6000600282049050600182168061322157607f821691505b602082108103613234576132336131da565b5b50919050565b7f43726561746520616e206163636f756e74206669727374210000000000000000600082015250565b6000613270601883612eb0565b915061327b8261323a565b602082019050919050565b6000602082019050818103600083015261329f81613263565b9050919050565b7f55736572206973206e6f74207265676973746572656421000000000000000000600082015250565b60006132dc601783612eb0565b91506132e7826132a6565b602082019050919050565b6000602082019050818103600083015261330b816132cf565b9050919050565b7f55736572732063616e6e6f742061646420796f757273656c6620616761696e21600082015250565b6000613348602083612eb0565b915061335382613312565b602082019050919050565b600060208201905081810360008301526133778161333b565b9050919050565b600081905092915050565b6000613394826129ea565b61339e818561337e565b93506133ae818560208601612a06565b80840191505092915050565b60006133c68284613389565b915081905092915050565b7f4e487b7100000000000000000000000000000000000000000000000000000000600052603260045260246000fd5b60008190508160005260206000209050919050565b6000815461342281613209565b61342c818661337e565b9450600182166000811461344757600181146134585761348b565b60ff1983168652818601935061348b565b61346185613400565b60005b8381101561348357815481890152600182019150602081019050613464565b838801955050505b50505092915050565b60006134a08284613415565b915081905092915050565b7f4e487b7100000000000000000000000000000000000000000000000000000000600052601160045260246000fd5b60006134e5826129d1565b91507fffffffffffffffffffffffffffffffffffffffffffffffffffffffffffffffff8203613517576135166134ab565b5b600182019050919050565b7f596f7520617265206e6f7420616e2061646d696e206f6620746869732067726f60008201527f7570000000000000000000000000000000000000000000000000000000000000602082015250565b600061357e602283612eb0565b915061358982613522565b604082019050919050565b600060208201905081810360008301526135ad81613571565b9050919050565b7f5573657220616c72656164792065786973747321000000000000000000000000600082015250565b60006135ea601483612eb0565b91506135f5826135b4565b602082019050919050565b60006020820190508181036000830152613619816135dd565b9050919050565b7f55736572204e616d652063616e6e6f7420626520656d70747921000000000000600082015250565b6000613656601a83612eb0565b915061366182613620565b602082019050919050565b6000602082019050818103600083015261368581613649565b9050919050565b7f55736572732063616e6e6f7420616464207468656d73656c766573206173206160008201527f20667269656e6421000000000000000000000000000000000000000000000000602082015250565b60006136e8602883612eb0565b91506136f38261368c565b604082019050919050565b60006020820190508181036000830152613717816136db565b9050919050565b7f54686573652075736572732061726520616c726561647920667269656e647321600082015250565b6000613754602083612eb0565b915061375f8261371e565b602082019050919050565b6000602082019050818103600083015261378381613747565b9050919050565b7f596f7520617265206e6f742061646d696e000000000000000000000000000000600082015250565b60006137c0601183612eb0565b91506137cb8261378a565b602082019050919050565b600060208201905081810360008301526137ef816137b3565b9050919050565b7f596f7520617265206e6f7420667269656e64732077697468207468652067697660008201527f656e207573657200000000000000000000000000000000000000000000000000602082015250565b6000613852602783612eb0565b915061385d826137f6565b604082019050919050565b6000602082019050818103600083015261388181613845565b9050919050565b60008160601b9050919050565b60006138a082613888565b9050919050565b60006138b282613895565b9050919050565b6138ca6138c5826126e4565b6138a7565b82525050565b60006138dc82856138b9565b6014820191506138ec82846138b9565b601482019150819050939250505056fea26469706673582212205c6719f0a307186a70b689bc59b97fe586b26ad496bb1e41d44317e870023a7664736f6c634300080d0033",
  "immutableReferences": {},
  "source": "pragma solidity >=0.7.0 <0.9.0;\n\ncontract Database {\n\n    struct User {\n        string userName;\n        string about;\n        string userId;\n        string profilePhoto;\n        address ethereumAddress;\n        Friend[] friendList;\n        Group[] groupList;\n        Settings settings;\n    }\n\n    struct Friend {\n        address pubkey;\n        string name;\n    }\n\n    struct Message {\n        address sender;\n        uint256 timestamp;\n        string data;\n    }\n\n    struct Group {\n        string groupName;\n        string groupAbout;\n        string groupPhoto;\n        address admin;\n        address[] membersArray;\n        Message[] messages;\n    }\n\n    struct Settings{\n        string wallpaper;\n        bool theme;\n    }\n\n    //Group[] public allGroups;\n    mapping(address => User) userList;\n    mapping(bytes32 => Message[]) allMessages;\n\n    function checkUserExists(address pubkey) public view returns(bool) {\n        return bytes(userList[pubkey].userName).length > 0;\n    }\n\n    function getUserName(address pubkey) external view returns(string memory) {\n        require(checkUserExists(pubkey), \"User is not registered!\");\n        return userList[pubkey].userName;\n    }\n\n    function createAccount(string calldata userName) external {\n        require(checkUserExists(msg.sender)==false, \"User already exists!\");\n        require(bytes(userName).length>0, \"User Name cannot be empty!\"); \n        userList[msg.sender].userName = userName;\n    }\n\n    function checkAlreadyFriends(address pubkey1, address pubkey2) internal view returns(bool) {\n        if(userList[pubkey1].friendList.length > userList[pubkey2].friendList.length){\n            address tmp = pubkey1;\n            pubkey1 = pubkey2;\n            pubkey2 = tmp;\n        }\n\n        for(uint i=0; i<userList[pubkey1].friendList.length; ++i){\n            if(userList[pubkey1].friendList[i].pubkey == pubkey2)\n                return true;\n        }\n        return false;\n    }\n\n    function addFriend(address friend_key, string calldata userName) external {\n        require(checkUserExists(msg.sender), \"Create an account first!\");\n        require(checkUserExists(friend_key), \"User is not registered!\");\n        require(msg.sender!=friend_key, \"Users cannot add themselves as a friend!\");\n        require(checkAlreadyFriends(msg.sender,friend_key)==false, \"These users are already friends!\");\n\n        _addFriend(msg.sender, friend_key, userName);\n        _addFriend(friend_key, msg.sender, userList[msg.sender].userName);\n    }\n\n    function _addFriend(address me, address friend_key, string memory userName) internal {\n        Friend memory newFriend = Friend(friend_key, userName);\n        userList[me].friendList.push(newFriend);\n    }\n\n    function getMyFriendList() external view returns(Friend[] memory) {\n        return userList[msg.sender].friendList;\n    }\n\n    function _getChatCode(address pubkey1, address pubkey2) internal pure returns(bytes32) {\n        if(pubkey1 < pubkey2)\n            return keccak256(abi.encodePacked(pubkey1, pubkey2));\n        else\n            return keccak256(abi.encodePacked(pubkey2, pubkey1));\n    }\n\n    function sendMessage(address friend_key, string calldata _msg) external {\n        require(checkUserExists(msg.sender), \"Create an account first!\");\n        require(checkUserExists(friend_key), \"User is not registered!\");\n        require(checkAlreadyFriends(msg.sender,friend_key), \"You are not friends with the given user\");\n\n        bytes32 chatCode = _getChatCode(msg.sender, friend_key);\n        Message memory newMsg = Message(msg.sender, block.timestamp, _msg);\n        allMessages[chatCode].push(newMsg);\n    }\n\n    function readMessage(address friend_key) external view returns(Message[] memory) {\n        bytes32 chatCode = _getChatCode(msg.sender, friend_key);\n        return allMessages[chatCode];\n    }\n\n    //Group functions\n    function addGroup(string memory name, string memory about) public {\n        require(checkUserExists(msg.sender), \"Create an account first!\");\n        uint n = userList[msg.sender].groupList.length;\n        userList[msg.sender].groupList[n].groupName = name;\n        userList[msg.sender].groupList[n].admin = msg.sender;\n        userList[msg.sender].groupList[n].groupAbout = about;\n        userList[msg.sender].groupList[n].groupPhoto = \"\";\n        uint m = userList[msg.sender].groupList[n].membersArray.length;\n        userList[msg.sender].groupList[n].membersArray[m] = msg.sender;\n    }\n    \n    function getMyGroupList() external view returns(Group[] memory) {\n        return userList[msg.sender].groupList;\n    }\n\n    function addGroupMembers(address me, string memory name, address newMember) public {\n        require(checkUserExists(msg.sender), \"Create an account first!\");\n        require(checkUserExists(newMember), \"User is not registered!\");\n        require(msg.sender!=newMember, \"Users cannot add yourself again!\");\n        uint i = 0;\n        for(i = 0; i < userList[me].groupList.length; ++i){\n            if(keccak256(abi.encodePacked(userList[me].groupList[i].groupName)) == keccak256(abi.encodePacked(name))){\n                break;\n            }\n        }\n        require(userList[me].groupList[i].admin == msg.sender, \"You are not an admin of this group\");\n        userList[me].groupList[i].membersArray.push(newMember);\n    }\n\n    function removeGroupMembers(address me, string memory name, address memberToRemove) public {\n        uint i = 0;\n        for(i = 0; i < userList[me].groupList.length; ++i){\n            if(keccak256(abi.encodePacked(userList[me].groupList[i].groupName)) == keccak256(abi.encodePacked(name))){\n                break;\n            }\n        }\n        require(userList[me].groupList[i].admin == msg.sender, \"You are not admin\");\n        uint j = 0;\n        for(j = 0; j < userList[me].groupList[i].membersArray.length; ++j){\n            if(userList[me].groupList[i].membersArray[j] == memberToRemove){\n                break;\n            }\n        }\n        delete userList[me].groupList[i].membersArray[j];\n    }\n\n    function sendMessageGroup(address me, string memory name, string calldata _msg) external {\n        uint i = 0;\n        for(i = 0; i < userList[me].groupList.length; ++i){\n            if(keccak256(abi.encodePacked(userList[me].groupList[i].groupName)) == keccak256(abi.encodePacked(name))){\n                break;\n            }\n        }\n        Message memory newMsg = Message(msg.sender, block.timestamp, _msg);\n        userList[me].groupList[i].messages.push(newMsg);\n    }\n\n    function readMessageGroup(address me, string memory name) external view returns(Message[] memory) {\n        uint i = 0;\n        for(i = 0; i < userList[me].groupList.length; ++i){\n            if(keccak256(abi.encodePacked(userList[me].groupList[i].groupName)) == keccak256(abi.encodePacked(name))){\n                break;\n            }\n        }\n        return userList[me].groupList[i].messages;\n    }\n}",
  "sourcePath": "/home/ritik/Desktop/TY files/Sem 6/SE/Samvad/src/contracts/Database.sol",
  "compiler": {
    "name": "solc",
    "version": "0.8.13+commit.abaa5c0e.Emscripten.clang"
  },
  "schemaVersion": "3.4.6",
  "updatedAt": "2022-04-06T21:00:22.395Z",
  "networkType": "ethereum",
  "devdoc": {
    "kind": "dev",
    "methods": {},
    "version": 1
  },
  "userdoc": {
    "kind": "user",
    "methods": {},
    "version": 1
  }
}