{
  "contractName": "Database",
  "abi": [
    {
      "inputs": [
        {
          "internalType": "uint256",
          "name": "",
          "type": "uint256"
        }
      ],
      "name": "allGroups",
      "outputs": [
        {
          "internalType": "string",
          "name": "groupName",
          "type": "string"
        },
        {
          "internalType": "string",
          "name": "groupId",
          "type": "string"
        },
        {
          "internalType": "string",
          "name": "groupAbout",
          "type": "string"
        },
        {
          "internalType": "string",
          "name": "groupPhoto",
          "type": "string"
        },
        {
          "internalType": "address",
          "name": "admin",
          "type": "address"
        },
        {
          "internalType": "uint256",
          "name": "replyCount",
          "type": "uint256"
        }
      ],
      "stateMutability": "view",
      "type": "function",
      "constant": true
    },
    {
      "inputs": [
        {
          "internalType": "address",
          "name": "pubkey",
          "type": "address"
        }
      ],
      "name": "checkUserExists",
      "outputs": [
        {
          "internalType": "bool",
          "name": "",
          "type": "bool"
        }
      ],
      "stateMutability": "view",
      "type": "function",
      "constant": true
    },
    {
      "inputs": [
        {
          "internalType": "string",
          "name": "userName",
          "type": "string"
        }
      ],
      "name": "createAccount",
      "outputs": [],
      "stateMutability": "nonpayable",
      "type": "function"
    },
    {
      "inputs": [
        {
          "internalType": "address",
          "name": "pubkey",
          "type": "address"
        }
      ],
      "name": "getUserName",
      "outputs": [
        {
          "internalType": "string",
          "name": "",
          "type": "string"
        }
      ],
      "stateMutability": "view",
      "type": "function",
      "constant": true
    },
    {
      "inputs": [
        {
          "internalType": "address",
          "name": "friend_key",
          "type": "address"
        },
        {
          "internalType": "string",
          "name": "userName",
          "type": "string"
        }
      ],
      "name": "addFriend",
      "outputs": [],
      "stateMutability": "nonpayable",
      "type": "function"
    },
    {
      "inputs": [],
      "name": "getMyFriendList",
      "outputs": [
        {
          "components": [
            {
              "internalType": "address",
              "name": "pubkey",
              "type": "address"
            },
            {
              "internalType": "string",
              "name": "name",
              "type": "string"
            }
          ],
          "internalType": "struct Database.Friend[]",
          "name": "",
          "type": "tuple[]"
        }
      ],
      "stateMutability": "view",
      "type": "function",
      "constant": true
    },
    {
      "inputs": [
        {
          "internalType": "address",
          "name": "friend_key",
          "type": "address"
        },
        {
          "internalType": "string",
          "name": "_msg",
          "type": "string"
        }
      ],
      "name": "sendMessage",
      "outputs": [],
      "stateMutability": "nonpayable",
      "type": "function"
    },
    {
      "inputs": [
        {
          "internalType": "address",
          "name": "friend_key",
          "type": "address"
        }
      ],
      "name": "readMessage",
      "outputs": [
        {
          "components": [
            {
              "internalType": "uint256",
              "name": "messageType",
              "type": "uint256"
            },
            {
              "internalType": "address",
              "name": "sender",
              "type": "address"
            },
            {
              "internalType": "string",
              "name": "data",
              "type": "string"
            },
            {
              "internalType": "uint256",
              "name": "timestamp",
              "type": "uint256"
            }
          ],
          "internalType": "struct Database.Message[]",
          "name": "",
          "type": "tuple[]"
        }
      ],
      "stateMutability": "view",
      "type": "function",
      "constant": true
    },
    {
      "inputs": [
        {
          "internalType": "string",
          "name": "name",
          "type": "string"
        },
        {
          "internalType": "string",
          "name": "about",
          "type": "string"
        }
      ],
      "name": "addGroup",
      "outputs": [],
      "stateMutability": "nonpayable",
      "type": "function"
    },
    {
      "inputs": [
        {
          "internalType": "uint256",
          "name": "channelIndex",
          "type": "uint256"
        },
        {
          "internalType": "address",
          "name": "newMember",
          "type": "address"
        }
      ],
      "name": "addGroupMembers",
      "outputs": [],
      "stateMutability": "nonpayable",
      "type": "function"
    },
    {
      "inputs": [
        {
          "internalType": "uint256",
          "name": "channelIndex",
          "type": "uint256"
        },
        {
          "internalType": "address",
          "name": "memberToRemove",
          "type": "address"
        },
        {
          "internalType": "uint256",
          "name": "memberIndex",
          "type": "uint256"
        }
      ],
      "name": "removeGroupMembers",
      "outputs": [],
      "stateMutability": "nonpayable",
      "type": "function"
    },
    {
      "inputs": [
        {
          "internalType": "uint256",
          "name": "channelIndex",
          "type": "uint256"
        },
        {
          "internalType": "string",
          "name": "_msg",
          "type": "string"
        }
      ],
      "name": "sendMessageGroup",
      "outputs": [],
      "stateMutability": "nonpayable",
      "type": "function"
    }
  ],
  "bytecode": "0x608060405234801561001057600080fd5b5061292f806100206000396000f3fe608060405234801561001057600080fd5b50600436106100b45760003560e01c8063bd0f4d0d11610071578063bd0f4d0d14610189578063c6d8bc49146101a7578063d84f55ee146101c3578063de6f24bb146101f3578063f531df131461020f578063fd16c1d31461022b576100b4565b8063133f50f5146100b9578063255e9c11146100e9578063298daf5b146101195780633775bf1b146101355780633b9f708d14610151578063b9b1d8251461016d575b600080fd5b6100d360048036038101906100ce9190611b72565b610260565b6040516100e09190611bba565b60405180910390f35b61010360048036038101906100fe9190611b72565b6102ba565b6040516101109190611dbb565b60405180910390f35b610133600480360381019061012e9190611e42565b610437565b005b61014f600480360381019061014a9190611fbf565b610522565b005b61016b60048036038101906101669190612037565b610794565b005b610187600480360381019061018291906120c3565b610a0b565b005b610191610b6b565b60405161019e9190612215565b60405180910390f35b6101c160048036038101906101bc9190612237565b610cf2565b005b6101dd60048036038101906101d89190611b72565b610e8f565b6040516101ea91906122e1565b60405180910390f35b61020d60048036038101906102089190612037565b610fab565b005b61022960048036038101906102249190612303565b6111d0565b005b61024560048036038101906102409190612343565b611352565b6040516102579695949392919061238e565b60405180910390f35b600080600160008473ffffffffffffffffffffffffffffffffffffffff1673ffffffffffffffffffffffffffffffffffffffff16815260200190815260200160002060000180546102b09061243a565b9050119050919050565b606060006102c833846115de565b905060026000828152602001908152602001600020805480602002602001604051908101604052809291908181526020016000905b8282101561042b5783829060005260206000209060040201604051806080016040529081600082015481526020016001820160009054906101000a900473ffffffffffffffffffffffffffffffffffffffff1673ffffffffffffffffffffffffffffffffffffffff1673ffffffffffffffffffffffffffffffffffffffff1681526020016002820180546103909061243a565b80601f01602080910402602001604051908101604052809291908181526020018280546103bc9061243a565b80156104095780601f106103de57610100808354040283529160200191610409565b820191906000526020600020905b8154815290600101906020018083116103ec57829003601f168201915b50505050508152602001600382015481525050815260200190600101906102fd565b50505050915050919050565b6000151561044433610260565b151514610486576040517f08c379a000000000000000000000000000000000000000000000000000000000815260040161047d906124b7565b60405180910390fd5b600082829050116104cc576040517f08c379a00000000000000000000000000000000000000000000000000000000081526004016104c390612523565b60405180910390fd5b8181600160003373ffffffffffffffffffffffffffffffffffffffff1673ffffffffffffffffffffffffffffffffffffffff168152602001908152602001600020600001919061051d92919061194d565b505050565b60008060018160018154018082558091505003906000526020600020906009020190508281600001908051906020019061055d9291906119d3565b50338160040160006101000a81548173ffffffffffffffffffffffffffffffffffffffff021916908373ffffffffffffffffffffffffffffffffffffffff160217905550818160020190805190602001906105b99291906119d3565b50604051806020016040528060008152508160030190805190602001906105e19291906119d3565b50604051806020016040528060008152508160010190805190602001906106099291906119d3565b50600067ffffffffffffffff81111561062557610624611e94565b5b6040519080825280602002602001820160405280156106535781602001602082028036833780820191505090505b5081600601908051906020019061066b929190611a59565b506001600060016000805490506106829190612572565b81548110610693576106926125a6565b5b906000526020600020906009020160070160003373ffffffffffffffffffffffffffffffffffffffff1673ffffffffffffffffffffffffffffffffffffffff16815260200190815260200160002060006101000a81548160ff0219169083151502179055506000600160008054905061070c9190612572565b8154811061071d5761071c6125a6565b5b9060005260206000209060090201600601339080600181540180825580915050600190039060005260206000200160009091909190916101000a81548173ffffffffffffffffffffffffffffffffffffffff021916908373ffffffffffffffffffffffffffffffffffffffff160217905550505050565b61079d33610260565b6107dc576040517f08c379a00000000000000000000000000000000000000000000000000000000081526004016107d390612621565b60405180910390fd5b6107e583610260565b610824576040517f08c379a000000000000000000000000000000000000000000000000000000000815260040161081b9061268d565b60405180910390fd5b8273ffffffffffffffffffffffffffffffffffffffff163373ffffffffffffffffffffffffffffffffffffffff1603610892576040517f08c379a00000000000000000000000000000000000000000000000000000000081526004016108899061271f565b60405180910390fd5b600015156108a03385611676565b1515146108e2576040517f08c379a00000000000000000000000000000000000000000000000000000000081526004016108d99061278b565b60405180910390fd5b610931338484848080601f016020809104026020016040519081016040528093929190818152602001838380828437600081840152601f19601f82011690508083019250505050505050611846565b610a068333600160003373ffffffffffffffffffffffffffffffffffffffff1673ffffffffffffffffffffffffffffffffffffffff16815260200190815260200160002060000180546109839061243a565b80601f01602080910402602001604051908101604052809291908181526020018280546109af9061243a565b80156109fc5780601f106109d1576101008083540402835291602001916109fc565b820191906000526020600020905b8154815290600101906020018083116109df57829003601f168201915b5050505050611846565b505050565b3373ffffffffffffffffffffffffffffffffffffffff1660008481548110610a3657610a356125a6565b5b906000526020600020906009020160040160009054906101000a900473ffffffffffffffffffffffffffffffffffffffff1673ffffffffffffffffffffffffffffffffffffffff1614610a8857600080fd5b6000808481548110610a9d57610a9c6125a6565b5b906000526020600020906009020160070160008473ffffffffffffffffffffffffffffffffffffffff1673ffffffffffffffffffffffffffffffffffffffff16815260200190815260200160002060006101000a81548160ff02191690831515021790555060008381548110610b1657610b156125a6565b5b90600052602060002090600902016006018181548110610b3957610b386125a6565b5b9060005260206000200160006101000a81549073ffffffffffffffffffffffffffffffffffffffff0219169055505050565b6060600160003373ffffffffffffffffffffffffffffffffffffffff1673ffffffffffffffffffffffffffffffffffffffff168152602001908152602001600020600501805480602002602001604051908101604052809291908181526020016000905b82821015610ce957838290600052602060002090600202016040518060400160405290816000820160009054906101000a900473ffffffffffffffffffffffffffffffffffffffff1673ffffffffffffffffffffffffffffffffffffffff1673ffffffffffffffffffffffffffffffffffffffff168152602001600182018054610c589061243a565b80601f0160208091040260200160405190810160405280929190818152602001828054610c849061243a565b8015610cd15780601f10610ca657610100808354040283529160200191610cd1565b820191906000526020600020905b815481529060010190602001808311610cb457829003601f168201915b50505050508152505081526020019060010190610bcf565b50505050905090565b60006040518060800160405280600081526020013373ffffffffffffffffffffffffffffffffffffffff16815260200184848080601f016020809104026020016040519081016040528093929190818152602001838380828437600081840152601f19601f8201169050808301925050505050505081526020014281525090506000808581548110610d8757610d866125a6565b5b90600052602060002090600902016005015490508160008681548110610db057610daf6125a6565b5b906000526020600020906009020160080160008381526020019081526020016000206000820151816000015560208201518160010160006101000a81548173ffffffffffffffffffffffffffffffffffffffff021916908373ffffffffffffffffffffffffffffffffffffffff1602179055506040820151816002019080519060200190610e3f9291906119d3565b506060820151816003015590505060008581548110610e6157610e606125a6565b5b90600052602060002090600902016005016000815480929190610e83906127ab565b91905055505050505050565b6060610e9a82610260565b610ed9576040517f08c379a0000000000000000000000000000000000000000000000000000000008152600401610ed09061268d565b60405180910390fd5b600160008373ffffffffffffffffffffffffffffffffffffffff1673ffffffffffffffffffffffffffffffffffffffff1681526020019081526020016000206000018054610f269061243a565b80601f0160208091040260200160405190810160405280929190818152602001828054610f529061243a565b8015610f9f5780601f10610f7457610100808354040283529160200191610f9f565b820191906000526020600020905b815481529060010190602001808311610f8257829003601f168201915b50505050509050919050565b610fb433610260565b610ff3576040517f08c379a0000000000000000000000000000000000000000000000000000000008152600401610fea90612621565b60405180910390fd5b610ffc83610260565b61103b576040517f08c379a00000000000000000000000000000000000000000000000000000000081526004016110329061268d565b60405180910390fd5b6110453384611676565b611084576040517f08c379a000000000000000000000000000000000000000000000000000000000815260040161107b90612865565b60405180910390fd5b600061109033856115de565b905060006040518060800160405280600081526020013373ffffffffffffffffffffffffffffffffffffffff16815260200185858080601f016020809104026020016040519081016040528093929190818152602001838380828437600081840152601f19601f820116905080830192505050505050508152602001428152509050600260008381526020019081526020016000208190806001815401808255809150506001900390600052602060002090600402016000909190919091506000820151816000015560208201518160010160006101000a81548173ffffffffffffffffffffffffffffffffffffffff021916908373ffffffffffffffffffffffffffffffffffffffff16021790555060408201518160020190805190602001906111bc9291906119d3565b506060820151816003015550505050505050565b3373ffffffffffffffffffffffffffffffffffffffff16600083815481106111fb576111fa6125a6565b5b906000526020600020906009020160040160009054906101000a900473ffffffffffffffffffffffffffffffffffffffff1673ffffffffffffffffffffffffffffffffffffffff161461124d57600080fd5b600160008381548110611263576112626125a6565b5b906000526020600020906009020160070160008373ffffffffffffffffffffffffffffffffffffffff1673ffffffffffffffffffffffffffffffffffffffff16815260200190815260200160002060006101000a81548160ff021916908315150217905550600082815481106112dc576112db6125a6565b5b9060005260206000209060090201600601819080600181540180825580915050600190039060005260206000200160009091909190916101000a81548173ffffffffffffffffffffffffffffffffffffffff021916908373ffffffffffffffffffffffffffffffffffffffff1602179055505050565b6000818154811061136257600080fd5b90600052602060002090600902016000915090508060000180546113859061243a565b80601f01602080910402602001604051908101604052809291908181526020018280546113b19061243a565b80156113fe5780601f106113d3576101008083540402835291602001916113fe565b820191906000526020600020905b8154815290600101906020018083116113e157829003601f168201915b5050505050908060010180546114139061243a565b80601f016020809104026020016040519081016040528092919081815260200182805461143f9061243a565b801561148c5780601f106114615761010080835404028352916020019161148c565b820191906000526020600020905b81548152906001019060200180831161146f57829003601f168201915b5050505050908060020180546114a19061243a565b80601f01602080910402602001604051908101604052809291908181526020018280546114cd9061243a565b801561151a5780601f106114ef5761010080835404028352916020019161151a565b820191906000526020600020905b8154815290600101906020018083116114fd57829003601f168201915b50505050509080600301805461152f9061243a565b80601f016020809104026020016040519081016040528092919081815260200182805461155b9061243a565b80156115a85780601f1061157d576101008083540402835291602001916115a8565b820191906000526020600020905b81548152906001019060200180831161158b57829003601f168201915b5050505050908060040160009054906101000a900473ffffffffffffffffffffffffffffffffffffffff16908060050154905086565b60008173ffffffffffffffffffffffffffffffffffffffff168373ffffffffffffffffffffffffffffffffffffffff1610156116445782826040516020016116279291906128cd565b604051602081830303815290604052805190602001209050611670565b81836040516020016116579291906128cd565b6040516020818303038152906040528051906020012090505b92915050565b6000600160008373ffffffffffffffffffffffffffffffffffffffff1673ffffffffffffffffffffffffffffffffffffffff16815260200190815260200160002060050180549050600160008573ffffffffffffffffffffffffffffffffffffffff1673ffffffffffffffffffffffffffffffffffffffff168152602001908152602001600020600501805490501115611717576000839050829350809250505b60005b600160008573ffffffffffffffffffffffffffffffffffffffff1673ffffffffffffffffffffffffffffffffffffffff1681526020019081526020016000206005018054905081101561183a578273ffffffffffffffffffffffffffffffffffffffff16600160008673ffffffffffffffffffffffffffffffffffffffff1673ffffffffffffffffffffffffffffffffffffffff16815260200190815260200160002060050182815481106117d2576117d16125a6565b5b906000526020600020906002020160000160009054906101000a900473ffffffffffffffffffffffffffffffffffffffff1673ffffffffffffffffffffffffffffffffffffffff1603611829576001915050611840565b80611833906127ab565b905061171a565b50600090505b92915050565b600060405180604001604052808473ffffffffffffffffffffffffffffffffffffffff168152602001838152509050600160008573ffffffffffffffffffffffffffffffffffffffff1673ffffffffffffffffffffffffffffffffffffffff16815260200190815260200160002060050181908060018154018082558091505060019003906000526020600020906002020160009091909190915060008201518160000160006101000a81548173ffffffffffffffffffffffffffffffffffffffff021916908373ffffffffffffffffffffffffffffffffffffffff16021790555060208201518160010190805190602001906119449291906119d3565b50505050505050565b8280546119599061243a565b90600052602060002090601f01602090048101928261197b57600085556119c2565b82601f1061199457803560ff19168380011785556119c2565b828001600101855582156119c2579182015b828111156119c15782358255916020019190600101906119a6565b5b5090506119cf9190611ae3565b5090565b8280546119df9061243a565b90600052602060002090601f016020900481019282611a015760008555611a48565b82601f10611a1a57805160ff1916838001178555611a48565b82800160010185558215611a48579182015b82811115611a47578251825591602001919060010190611a2c565b5b509050611a559190611ae3565b5090565b828054828255906000526020600020908101928215611ad2579160200282015b82811115611ad15782518260006101000a81548173ffffffffffffffffffffffffffffffffffffffff021916908373ffffffffffffffffffffffffffffffffffffffff16021790555091602001919060010190611a79565b5b509050611adf9190611ae3565b5090565b5b80821115611afc576000816000905550600101611ae4565b5090565b6000604051905090565b600080fd5b600080fd5b600073ffffffffffffffffffffffffffffffffffffffff82169050919050565b6000611b3f82611b14565b9050919050565b611b4f81611b34565b8114611b5a57600080fd5b50565b600081359050611b6c81611b46565b92915050565b600060208284031215611b8857611b87611b0a565b5b6000611b9684828501611b5d565b91505092915050565b60008115159050919050565b611bb481611b9f565b82525050565b6000602082019050611bcf6000830184611bab565b92915050565b600081519050919050565b600082825260208201905092915050565b6000819050602082019050919050565b6000819050919050565b611c1481611c01565b82525050565b611c2381611b34565b82525050565b600081519050919050565b600082825260208201905092915050565b60005b83811015611c63578082015181840152602081019050611c48565b83811115611c72576000848401525b50505050565b6000601f19601f8301169050919050565b6000611c9482611c29565b611c9e8185611c34565b9350611cae818560208601611c45565b611cb781611c78565b840191505092915050565b6000608083016000830151611cda6000860182611c0b565b506020830151611ced6020860182611c1a565b5060408301518482036040860152611d058282611c89565b9150506060830151611d1a6060860182611c0b565b508091505092915050565b6000611d318383611cc2565b905092915050565b6000602082019050919050565b6000611d5182611bd5565b611d5b8185611be0565b935083602082028501611d6d85611bf1565b8060005b85811015611da95784840389528151611d8a8582611d25565b9450611d9583611d39565b925060208a01995050600181019050611d71565b50829750879550505050505092915050565b60006020820190508181036000830152611dd58184611d46565b905092915050565b600080fd5b600080fd5b600080fd5b60008083601f840112611e0257611e01611ddd565b5b8235905067ffffffffffffffff811115611e1f57611e1e611de2565b5b602083019150836001820283011115611e3b57611e3a611de7565b5b9250929050565b60008060208385031215611e5957611e58611b0a565b5b600083013567ffffffffffffffff811115611e7757611e76611b0f565b5b611e8385828601611dec565b92509250509250929050565b600080fd5b7f4e487b7100000000000000000000000000000000000000000000000000000000600052604160045260246000fd5b611ecc82611c78565b810181811067ffffffffffffffff82111715611eeb57611eea611e94565b5b80604052505050565b6000611efe611b00565b9050611f0a8282611ec3565b919050565b600067ffffffffffffffff821115611f2a57611f29611e94565b5b611f3382611c78565b9050602081019050919050565b82818337600083830152505050565b6000611f62611f5d84611f0f565b611ef4565b905082815260208101848484011115611f7e57611f7d611e8f565b5b611f89848285611f40565b509392505050565b600082601f830112611fa657611fa5611ddd565b5b8135611fb6848260208601611f4f565b91505092915050565b60008060408385031215611fd657611fd5611b0a565b5b600083013567ffffffffffffffff811115611ff457611ff3611b0f565b5b61200085828601611f91565b925050602083013567ffffffffffffffff81111561202157612020611b0f565b5b61202d85828601611f91565b9150509250929050565b6000806000604084860312156120505761204f611b0a565b5b600061205e86828701611b5d565b935050602084013567ffffffffffffffff81111561207f5761207e611b0f565b5b61208b86828701611dec565b92509250509250925092565b6120a081611c01565b81146120ab57600080fd5b50565b6000813590506120bd81612097565b92915050565b6000806000606084860312156120dc576120db611b0a565b5b60006120ea868287016120ae565b93505060206120fb86828701611b5d565b925050604061210c868287016120ae565b9150509250925092565b600081519050919050565b600082825260208201905092915050565b6000819050602082019050919050565b600060408301600083015161215a6000860182611c1a565b50602083015184820360208601526121728282611c89565b9150508091505092915050565b600061218b8383612142565b905092915050565b6000602082019050919050565b60006121ab82612116565b6121b58185612121565b9350836020820285016121c785612132565b8060005b8581101561220357848403895281516121e4858261217f565b94506121ef83612193565b925060208a019950506001810190506121cb565b50829750879550505050505092915050565b6000602082019050818103600083015261222f81846121a0565b905092915050565b6000806000604084860312156122505761224f611b0a565b5b600061225e868287016120ae565b935050602084013567ffffffffffffffff81111561227f5761227e611b0f565b5b61228b86828701611dec565b92509250509250925092565b600082825260208201905092915050565b60006122b382611c29565b6122bd8185612297565b93506122cd818560208601611c45565b6122d681611c78565b840191505092915050565b600060208201905081810360008301526122fb81846122a8565b905092915050565b6000806040838503121561231a57612319611b0a565b5b6000612328858286016120ae565b925050602061233985828601611b5d565b9150509250929050565b60006020828403121561235957612358611b0a565b5b6000612367848285016120ae565b91505092915050565b61237981611b34565b82525050565b61238881611c01565b82525050565b600060c08201905081810360008301526123a881896122a8565b905081810360208301526123bc81886122a8565b905081810360408301526123d081876122a8565b905081810360608301526123e481866122a8565b90506123f36080830185612370565b61240060a083018461237f565b979650505050505050565b7f4e487b7100000000000000000000000000000000000000000000000000000000600052602260045260246000fd5b6000600282049050600182168061245257607f821691505b6020821081036124655761246461240b565b5b50919050565b7f5573657220616c72656164792065786973747321000000000000000000000000600082015250565b60006124a1601483612297565b91506124ac8261246b565b602082019050919050565b600060208201905081810360008301526124d081612494565b9050919050565b7f55736572204e616d652063616e6e6f7420626520656d70747921000000000000600082015250565b600061250d601a83612297565b9150612518826124d7565b602082019050919050565b6000602082019050818103600083015261253c81612500565b9050919050565b7f4e487b7100000000000000000000000000000000000000000000000000000000600052601160045260246000fd5b600061257d82611c01565b915061258883611c01565b92508282101561259b5761259a612543565b5b828203905092915050565b7f4e487b7100000000000000000000000000000000000000000000000000000000600052603260045260246000fd5b7f43726561746520616e206163636f756e74206669727374210000000000000000600082015250565b600061260b601883612297565b9150612616826125d5565b602082019050919050565b6000602082019050818103600083015261263a816125fe565b9050919050565b7f55736572206973206e6f74207265676973746572656421000000000000000000600082015250565b6000612677601783612297565b915061268282612641565b602082019050919050565b600060208201905081810360008301526126a68161266a565b9050919050565b7f55736572732063616e6e6f7420616464207468656d73656c766573206173206160008201527f20667269656e6421000000000000000000000000000000000000000000000000602082015250565b6000612709602883612297565b9150612714826126ad565b604082019050919050565b60006020820190508181036000830152612738816126fc565b9050919050565b7f54686573652075736572732061726520616c726561647920667269656e647321600082015250565b6000612775602083612297565b91506127808261273f565b602082019050919050565b600060208201905081810360008301526127a481612768565b9050919050565b60006127b682611c01565b91507fffffffffffffffffffffffffffffffffffffffffffffffffffffffffffffffff82036127e8576127e7612543565b5b600182019050919050565b7f596f7520617265206e6f7420667269656e64732077697468207468652067697660008201527f656e207573657200000000000000000000000000000000000000000000000000602082015250565b600061284f602783612297565b915061285a826127f3565b604082019050919050565b6000602082019050818103600083015261287e81612842565b9050919050565b60008160601b9050919050565b600061289d82612885565b9050919050565b60006128af82612892565b9050919050565b6128c76128c282611b34565b6128a4565b82525050565b60006128d982856128b6565b6014820191506128e982846128b6565b601482019150819050939250505056fea26469706673582212202669db80c97083cab421cb9c16955cd1f6c52ca88896c4b6ee63fc5681fb0f9964736f6c634300080d0033",
  "immutableReferences": {},
  "source": "pragma solidity >=0.7.0 <0.9.0;\n\ncontract Database {\n\n    struct User {\n        string userName;\n        string about;\n        string userId;\n        string profilePhoto;\n        address ethereumAddress;\n        Friend[] friendList;\n    }\n\n    struct Friend {\n        address pubkey;\n        string name;\n    }\n\n    struct Message {\n        uint messageType; \n        address sender;\n        string data;\n        //address toId;\n        uint timestamp;\n    }\n\n    struct Group {\n        string groupName;\n        string groupId;\n        string groupAbout;\n        string groupPhoto;\n        address admin;\n        uint replyCount;\n        address[] membersArray;\n        mapping(address=>bool) members;\n        mapping(uint => Message) messages;\n    }\n\n    Group[] public allGroups;\n    mapping(address => User) userList;\n    mapping(bytes32 => Message[]) allMessages;\n\n    function checkUserExists(address pubkey) public view returns(bool) {\n        return bytes(userList[pubkey].userName).length > 0;\n    }\n\n    // Registers the caller(msg.sender) to our app with a non-empty useruserName\n    function createAccount(string calldata userName) external {\n        require(checkUserExists(msg.sender)==false, \"User already exists!\");\n        require(bytes(userName).length>0, \"User Name cannot be empty!\"); \n        userList[msg.sender].userName = userName;\n    }\n\n    // Returns the default userName provided by an user\n    function getUserName(address pubkey) external view returns(string memory) {\n        require(checkUserExists(pubkey), \"User is not registered!\");\n        return userList[pubkey].userName;\n    }\n\n    // Adds new user as your friend with an associated nickuserName\n    function addFriend(address friend_key, string calldata userName) external {\n        require(checkUserExists(msg.sender), \"Create an account first!\");\n        require(checkUserExists(friend_key), \"User is not registered!\");\n        require(msg.sender!=friend_key, \"Users cannot add themselves as a friend!\");\n        require(checkAlreadyFriends(msg.sender,friend_key)==false, \"These users are already friends!\");\n\n        _addFriend(msg.sender, friend_key, userName);\n        _addFriend(friend_key, msg.sender, userList[msg.sender].userName);\n    }\n\n    // Checks if two users are already friends or not\n    function checkAlreadyFriends(address pubkey1, address pubkey2) internal view returns(bool) {\n        if(userList[pubkey1].friendList.length > userList[pubkey2].friendList.length){\n            address tmp = pubkey1;\n            pubkey1 = pubkey2;\n            pubkey2 = tmp;\n        }\n\n        for(uint i=0; i<userList[pubkey1].friendList.length; ++i){\n            if(userList[pubkey1].friendList[i].pubkey == pubkey2)\n                return true;\n        }\n        return false;\n    }\n\n    // A helper function to update the friendList\n    function _addFriend(address me, address friend_key, string memory userName) internal {\n        Friend memory newFriend = Friend(friend_key,userName);\n        userList[me].friendList.push(newFriend);\n    }\n\n    // Returns list of friends of the sender\n    function getMyFriendList() external view returns(Friend[] memory) {\n        return userList[msg.sender].friendList;\n    }\n\n    function _getChatCode(address pubkey1, address pubkey2) internal pure returns(bytes32) {\n        if(pubkey1 < pubkey2)\n            return keccak256(abi.encodePacked(pubkey1, pubkey2));\n        else\n            return keccak256(abi.encodePacked(pubkey2, pubkey1));\n    }\n\n    function sendMessage(address friend_key, string calldata _msg) external {\n        require(checkUserExists(msg.sender), \"Create an account first!\");\n        require(checkUserExists(friend_key), \"User is not registered!\");\n        require(checkAlreadyFriends(msg.sender,friend_key), \"You are not friends with the given user\");\n\n        bytes32 chatCode = _getChatCode(msg.sender, friend_key);\n        Message memory newMsg = Message(0, msg.sender, _msg, block.timestamp);\n        allMessages[chatCode].push(newMsg);\n    }\n\n    // Returns all the chat messages communicated in a channel\n    function readMessage(address friend_key) external view returns(Message[] memory) {\n        bytes32 chatCode = _getChatCode(msg.sender, friend_key);\n        return allMessages[chatCode];\n    }\n    \n    function addGroup(string memory name, string memory about) public {\n        Group storage newGroup = allGroups.push();\n        \n        newGroup.groupName = name;\n        newGroup.admin= msg.sender;\n        newGroup.groupAbout= about;\n        newGroup.groupPhoto= \"\";\n        newGroup.groupId= \"\";\n        newGroup.membersArray= new address[](0);\n        \n\n        //allGroups.push(newGroup);\n\n        //add yourself to your own allowed members\n        allGroups[allGroups.length - 1].members[msg.sender] = true;\n        allGroups[allGroups.length - 1].membersArray.push(msg.sender);\n    }\n\n    function addGroupMembers(uint channelIndex, address newMember) public {\n        require (allGroups[channelIndex].admin == msg.sender);\n            allGroups[channelIndex].members[newMember] = true;\n            allGroups[channelIndex].membersArray.push(newMember);\n    }\n\n    function removeGroupMembers(uint channelIndex, address memberToRemove, uint memberIndex) public {\n        require (allGroups[channelIndex].admin == msg.sender);\n            allGroups[channelIndex].members[memberToRemove] = false;\n            delete allGroups[channelIndex].membersArray[memberIndex];\n    }\n\n    function sendMessageGroup(uint channelIndex, string calldata _msg) external {\n        Message memory newMsg = Message(0, msg.sender, _msg, block.timestamp);\n        uint currReplyIndex = allGroups[channelIndex].replyCount;\n\n        //Appending newReply to end of reply chain\n        allGroups[channelIndex].messages[currReplyIndex] = newMsg;\n\n        allGroups[channelIndex].replyCount++;\n    }\n\n}",
  "sourcePath": "/home/ritik/Desktop/TY files/Sem 6/SE/Samvad/src/contracts/Database.sol",
  "compiler": {
    "name": "solc",
    "version": "0.8.13+commit.abaa5c0e.Emscripten.clang"
  },
  "schemaVersion": "3.4.6",
  "updatedAt": "2022-04-04T14:06:12.861Z",
  "networkType": "ethereum",
  "devdoc": {
    "kind": "dev",
    "methods": {},
    "version": 1
  },
  "userdoc": {
    "kind": "user",
    "methods": {},
    "version": 1
  }
}