{
  "contractName": "Database",
  "abi": [
    {
      "inputs": [
        {
          "internalType": "address",
          "name": "pubkey",
          "type": "address"
        }
      ],
      "name": "checkUserExists",
      "outputs": [
        {
          "internalType": "bool",
          "name": "",
          "type": "bool"
        }
      ],
      "stateMutability": "view",
      "type": "function",
      "constant": true
    },
    {
      "inputs": [
        {
          "internalType": "address",
          "name": "pubkey",
          "type": "address"
        }
      ],
      "name": "getUserName",
      "outputs": [
        {
          "internalType": "string",
          "name": "",
          "type": "string"
        }
      ],
      "stateMutability": "view",
      "type": "function",
      "constant": true
    },
    {
      "inputs": [
        {
          "internalType": "string",
          "name": "userName",
          "type": "string"
        }
      ],
      "name": "createAccount",
      "outputs": [],
      "stateMutability": "nonpayable",
      "type": "function"
    },
    {
      "inputs": [
        {
          "internalType": "address",
          "name": "friend_key",
          "type": "address"
        },
        {
          "internalType": "string",
          "name": "userName",
          "type": "string"
        }
      ],
      "name": "addFriend",
      "outputs": [],
      "stateMutability": "nonpayable",
      "type": "function"
    },
    {
      "inputs": [],
      "name": "getMyFriendList",
      "outputs": [
        {
          "components": [
            {
              "internalType": "address",
              "name": "pubkey",
              "type": "address"
            },
            {
              "internalType": "string",
              "name": "name",
              "type": "string"
            }
          ],
          "internalType": "struct Database.Friend[]",
          "name": "",
          "type": "tuple[]"
        }
      ],
      "stateMutability": "view",
      "type": "function",
      "constant": true
    },
    {
      "inputs": [
        {
          "internalType": "address",
          "name": "friend_key",
          "type": "address"
        },
        {
          "internalType": "string",
          "name": "_msg",
          "type": "string"
        }
      ],
      "name": "sendMessage",
      "outputs": [],
      "stateMutability": "nonpayable",
      "type": "function"
    },
    {
      "inputs": [
        {
          "internalType": "address",
          "name": "friend_key",
          "type": "address"
        }
      ],
      "name": "readMessage",
      "outputs": [
        {
          "components": [
            {
              "internalType": "address",
              "name": "sender",
              "type": "address"
            },
            {
              "internalType": "uint256",
              "name": "timestamp",
              "type": "uint256"
            },
            {
              "internalType": "string",
              "name": "data",
              "type": "string"
            }
          ],
          "internalType": "struct Database.Message[]",
          "name": "",
          "type": "tuple[]"
        }
      ],
      "stateMutability": "view",
      "type": "function",
      "constant": true
    },
    {
      "inputs": [
        {
          "internalType": "string",
          "name": "name",
          "type": "string"
        },
        {
          "internalType": "string",
          "name": "about",
          "type": "string"
        }
      ],
      "name": "addGroup",
      "outputs": [],
      "stateMutability": "nonpayable",
      "type": "function"
    },
    {
      "inputs": [],
      "name": "getMyGroupList",
      "outputs": [
        {
          "components": [
            {
              "internalType": "string",
              "name": "groupName",
              "type": "string"
            },
            {
              "internalType": "string",
              "name": "groupAbout",
              "type": "string"
            },
            {
              "internalType": "string",
              "name": "groupPhoto",
              "type": "string"
            },
            {
              "internalType": "address",
              "name": "admin",
              "type": "address"
            },
            {
              "internalType": "address[]",
              "name": "membersArray",
              "type": "address[]"
            },
            {
              "components": [
                {
                  "internalType": "address",
                  "name": "sender",
                  "type": "address"
                },
                {
                  "internalType": "uint256",
                  "name": "timestamp",
                  "type": "uint256"
                },
                {
                  "internalType": "string",
                  "name": "data",
                  "type": "string"
                }
              ],
              "internalType": "struct Database.Message[]",
              "name": "messages",
              "type": "tuple[]"
            }
          ],
          "internalType": "struct Database.Group[]",
          "name": "",
          "type": "tuple[]"
        }
      ],
      "stateMutability": "view",
      "type": "function",
      "constant": true
    },
    {
      "inputs": [
        {
          "internalType": "address",
          "name": "me",
          "type": "address"
        },
        {
          "internalType": "string",
          "name": "name",
          "type": "string"
        },
        {
          "internalType": "address",
          "name": "newMember",
          "type": "address"
        }
      ],
      "name": "addGroupMembers",
      "outputs": [],
      "stateMutability": "nonpayable",
      "type": "function"
    },
    {
      "inputs": [
        {
          "internalType": "address",
          "name": "me",
          "type": "address"
        },
        {
          "internalType": "string",
          "name": "name",
          "type": "string"
        },
        {
          "internalType": "address",
          "name": "memberToRemove",
          "type": "address"
        }
      ],
      "name": "removeGroupMembers",
      "outputs": [],
      "stateMutability": "nonpayable",
      "type": "function"
    },
    {
      "inputs": [
        {
          "internalType": "address",
          "name": "me",
          "type": "address"
        },
        {
          "internalType": "string",
          "name": "name",
          "type": "string"
        },
        {
          "internalType": "string",
          "name": "_msg",
          "type": "string"
        }
      ],
      "name": "sendMessageGroup",
      "outputs": [],
      "stateMutability": "nonpayable",
      "type": "function"
    },
    {
      "inputs": [
        {
          "internalType": "address",
          "name": "me",
          "type": "address"
        },
        {
          "internalType": "string",
          "name": "name",
          "type": "string"
        }
      ],
      "name": "readMessageGroup",
      "outputs": [
        {
          "components": [
            {
              "internalType": "address",
              "name": "sender",
              "type": "address"
            },
            {
              "internalType": "uint256",
              "name": "timestamp",
              "type": "uint256"
            },
            {
              "internalType": "string",
              "name": "data",
              "type": "string"
            }
          ],
          "internalType": "struct Database.Message[]",
          "name": "",
          "type": "tuple[]"
        }
      ],
      "stateMutability": "view",
      "type": "function",
      "constant": true
    }
  ],
  "bytecode": "0x608060405234801561001057600080fd5b50613883806100206000396000f3fe608060405234801561001057600080fd5b50600436106100cf5760003560e01c80633b9f708d1161008c578063bd0f4d0d11610066578063bd0f4d0d1461020c578063d84f55ee1461022a578063de6f24bb1461025a578063fa6fbff914610276576100cf565b80633b9f708d146101b8578063606a6092146101d45780636a064e5c146101f0576100cf565b8063133f50f5146100d457806314ae06de146101045780631f78afa414610120578063255e9c1114610150578063298daf5b146101805780633775bf1b1461019c575b600080fd5b6100ee60048036038101906100e99190612673565b610294565b6040516100fb91906126bb565b60405180910390f35b61011e6004803603810190610119919061281c565b6102ed565b005b61013a6004803603810190610135919061288b565b6106bf565b6040516101479190612aa9565b60405180910390f35b61016a60048036038101906101659190612673565b61098d565b6040516101779190612aa9565b60405180910390f35b61019a60048036038101906101959190612b2b565b610b00565b005b6101b660048036038101906101b19190612b78565b610bea565b005b6101d260048036038101906101cd9190612bf0565b610f1a565b005b6101ee60048036038101906101e9919061281c565b611190565b005b61020a60048036038101906102059190612c50565b61159a565b005b610214611830565b6040516102219190612ddf565b60405180910390f35b610244600480360381019061023f9190612673565b6119b6565b6040516102519190612e4b565b60405180910390f35b610274600480360381019061026f9190612bf0565b611ad1565b005b61027e611ce5565b60405161028b9190613109565b60405180910390f35b6000806000808473ffffffffffffffffffffffffffffffffffffffff1673ffffffffffffffffffffffffffffffffffffffff16815260200190815260200160002060000180546102e39061315a565b9050119050919050565b6102f633610294565b610335576040517f08c379a000000000000000000000000000000000000000000000000000000000815260040161032c906131d7565b60405180910390fd5b61033e81610294565b61037d576040517f08c379a000000000000000000000000000000000000000000000000000000000815260040161037490613243565b60405180910390fd5b8073ffffffffffffffffffffffffffffffffffffffff163373ffffffffffffffffffffffffffffffffffffffff16036103eb576040517f08c379a00000000000000000000000000000000000000000000000000000000081526004016103e2906132af565b60405180910390fd5b60005b6000808573ffffffffffffffffffffffffffffffffffffffff1673ffffffffffffffffffffffffffffffffffffffff16815260200190815260200160002060060180549050811015610502578260405160200161044b919061330b565b604051602081830303815290604052805190602001206000808673ffffffffffffffffffffffffffffffffffffffff1673ffffffffffffffffffffffffffffffffffffffff16815260200190815260200160002060060182815481106104b4576104b3613322565b5b90600052602060002090600602016000016040516020016104d591906133e5565b60405160208183030381529060405280519060200120031561050257806104fb9061342b565b90506103ee565b3373ffffffffffffffffffffffffffffffffffffffff166000808673ffffffffffffffffffffffffffffffffffffffff1673ffffffffffffffffffffffffffffffffffffffff168152602001908152602001600020600601828154811061056c5761056b613322565b5b906000526020600020906006020160030160009054906101000a900473ffffffffffffffffffffffffffffffffffffffff1673ffffffffffffffffffffffffffffffffffffffff16146105f4576040517f08c379a00000000000000000000000000000000000000000000000000000000081526004016105eb906134e5565b60405180910390fd5b6000808573ffffffffffffffffffffffffffffffffffffffff1673ffffffffffffffffffffffffffffffffffffffff168152602001908152602001600020600601818154811061064757610646613322565b5b9060005260206000209060060201600401829080600181540180825580915050600190039060005260206000200160009091909190916101000a81548173ffffffffffffffffffffffffffffffffffffffff021916908373ffffffffffffffffffffffffffffffffffffffff16021790555050505050565b606060005b6000808573ffffffffffffffffffffffffffffffffffffffff1673ffffffffffffffffffffffffffffffffffffffff168152602001908152602001600020600601805490508110156107d85782604051602001610721919061330b565b604051602081830303815290604052805190602001206000808673ffffffffffffffffffffffffffffffffffffffff1673ffffffffffffffffffffffffffffffffffffffff168152602001908152602001600020600601828154811061078a57610789613322565b5b90600052602060002090600602016000016040516020016107ab91906133e5565b6040516020818303038152906040528051906020012003156107d857806107d19061342b565b90506106c4565b6000808573ffffffffffffffffffffffffffffffffffffffff1673ffffffffffffffffffffffffffffffffffffffff168152602001908152602001600020600601818154811061082b5761082a613322565b5b9060005260206000209060060201600501805480602002602001604051908101604052809291908181526020016000905b8282101561098057838290600052602060002090600302016040518060600160405290816000820160009054906101000a900473ffffffffffffffffffffffffffffffffffffffff1673ffffffffffffffffffffffffffffffffffffffff1673ffffffffffffffffffffffffffffffffffffffff168152602001600182015481526020016002820180546108ef9061315a565b80601f016020809104026020016040519081016040528092919081815260200182805461091b9061315a565b80156109685780601f1061093d57610100808354040283529160200191610968565b820191906000526020600020905b81548152906001019060200180831161094b57829003601f168201915b5050505050815250508152602001906001019061085c565b5050505091505092915050565b6060600061099b338461216e565b905060016000828152602001908152602001600020805480602002602001604051908101604052809291908181526020016000905b82821015610af457838290600052602060002090600302016040518060600160405290816000820160009054906101000a900473ffffffffffffffffffffffffffffffffffffffff1673ffffffffffffffffffffffffffffffffffffffff1673ffffffffffffffffffffffffffffffffffffffff16815260200160018201548152602001600282018054610a639061315a565b80601f0160208091040260200160405190810160405280929190818152602001828054610a8f9061315a565b8015610adc5780601f10610ab157610100808354040283529160200191610adc565b820191906000526020600020905b815481529060010190602001808311610abf57829003601f168201915b505050505081525050815260200190600101906109d0565b50505050915050919050565b60001515610b0d33610294565b151514610b4f576040517f08c379a0000000000000000000000000000000000000000000000000000000008152600401610b4690613551565b60405180910390fd5b60008282905011610b95576040517f08c379a0000000000000000000000000000000000000000000000000000000008152600401610b8c906135bd565b60405180910390fd5b81816000803373ffffffffffffffffffffffffffffffffffffffff1673ffffffffffffffffffffffffffffffffffffffff1681526020019081526020016000206000019190610be59291906124d8565b505050565b60008060003373ffffffffffffffffffffffffffffffffffffffff1673ffffffffffffffffffffffffffffffffffffffff168152602001908152602001600020600601805490509050826000803373ffffffffffffffffffffffffffffffffffffffff1673ffffffffffffffffffffffffffffffffffffffff1681526020019081526020016000206006018281548110610c8757610c86613322565b5b90600052602060002090600602016000019080519060200190610cab92919061255e565b50336000803373ffffffffffffffffffffffffffffffffffffffff1673ffffffffffffffffffffffffffffffffffffffff1681526020019081526020016000206006018281548110610d0057610cff613322565b5b906000526020600020906006020160030160006101000a81548173ffffffffffffffffffffffffffffffffffffffff021916908373ffffffffffffffffffffffffffffffffffffffff160217905550816000803373ffffffffffffffffffffffffffffffffffffffff1673ffffffffffffffffffffffffffffffffffffffff1681526020019081526020016000206006018281548110610da357610da2613322565b5b90600052602060002090600602016001019080519060200190610dc792919061255e565b50604051806020016040528060008152506000803373ffffffffffffffffffffffffffffffffffffffff1673ffffffffffffffffffffffffffffffffffffffff1681526020019081526020016000206006018281548110610e2b57610e2a613322565b5b90600052602060002090600602016002019080519060200190610e4f92919061255e565b506000803373ffffffffffffffffffffffffffffffffffffffff1673ffffffffffffffffffffffffffffffffffffffff1681526020019081526020016000206006018181548110610ea357610ea2613322565b5b9060005260206000209060060201600401339080600181540180825580915050600190039060005260206000200160009091909190916101000a81548173ffffffffffffffffffffffffffffffffffffffff021916908373ffffffffffffffffffffffffffffffffffffffff160217905550505050565b610f2333610294565b610f62576040517f08c379a0000000000000000000000000000000000000000000000000000000008152600401610f59906131d7565b60405180910390fd5b610f6b83610294565b610faa576040517f08c379a0000000000000000000000000000000000000000000000000000000008152600401610fa190613243565b60405180910390fd5b8273ffffffffffffffffffffffffffffffffffffffff163373ffffffffffffffffffffffffffffffffffffffff1603611018576040517f08c379a000000000000000000000000000000000000000000000000000000000815260040161100f9061364f565b60405180910390fd5b600015156110263385612206565b151514611068576040517f08c379a000000000000000000000000000000000000000000000000000000000815260040161105f906136bb565b60405180910390fd5b6110b7338484848080601f016020809104026020016040519081016040528093929190818152602001838380828437600081840152601f19601f820116905080830192505050505050506123d2565b61118b83336000803373ffffffffffffffffffffffffffffffffffffffff1673ffffffffffffffffffffffffffffffffffffffff16815260200190815260200160002060000180546111089061315a565b80601f01602080910402602001604051908101604052809291908181526020018280546111349061315a565b80156111815780601f1061115657610100808354040283529160200191611181565b820191906000526020600020905b81548152906001019060200180831161116457829003601f168201915b50505050506123d2565b505050565b60005b6000808573ffffffffffffffffffffffffffffffffffffffff1673ffffffffffffffffffffffffffffffffffffffff168152602001908152602001600020600601805490508110156112a757826040516020016111f0919061330b565b604051602081830303815290604052805190602001206000808673ffffffffffffffffffffffffffffffffffffffff1673ffffffffffffffffffffffffffffffffffffffff168152602001908152602001600020600601828154811061125957611258613322565b5b906000526020600020906006020160000160405160200161127a91906133e5565b6040516020818303038152906040528051906020012003156112a757806112a09061342b565b9050611193565b3373ffffffffffffffffffffffffffffffffffffffff166000808673ffffffffffffffffffffffffffffffffffffffff1673ffffffffffffffffffffffffffffffffffffffff168152602001908152602001600020600601828154811061131157611310613322565b5b906000526020600020906006020160030160009054906101000a900473ffffffffffffffffffffffffffffffffffffffff1673ffffffffffffffffffffffffffffffffffffffff1614611399576040517f08c379a000000000000000000000000000000000000000000000000000000000815260040161139090613727565b60405180910390fd5b60005b6000808673ffffffffffffffffffffffffffffffffffffffff1673ffffffffffffffffffffffffffffffffffffffff16815260200190815260200160002060060182815481106113ef576113ee613322565b5b9060005260206000209060060201600401805490508110156114f0578273ffffffffffffffffffffffffffffffffffffffff166000808773ffffffffffffffffffffffffffffffffffffffff1673ffffffffffffffffffffffffffffffffffffffff168152602001908152602001600020600601838154811061147557611474613322565b5b9060005260206000209060060201600401828154811061149857611497613322565b5b9060005260206000200160009054906101000a900473ffffffffffffffffffffffffffffffffffffffff1673ffffffffffffffffffffffffffffffffffffffff1603156114f057806114e99061342b565b905061139c565b6000808673ffffffffffffffffffffffffffffffffffffffff1673ffffffffffffffffffffffffffffffffffffffff168152602001908152602001600020600601828154811061154357611542613322565b5b9060005260206000209060060201600401818154811061156657611565613322565b5b9060005260206000200160006101000a81549073ffffffffffffffffffffffffffffffffffffffff02191690555050505050565b60005b6000808673ffffffffffffffffffffffffffffffffffffffff1673ffffffffffffffffffffffffffffffffffffffff168152602001908152602001600020600601805490508110156116b157836040516020016115fa919061330b565b604051602081830303815290604052805190602001206000808773ffffffffffffffffffffffffffffffffffffffff1673ffffffffffffffffffffffffffffffffffffffff168152602001908152602001600020600601828154811061166357611662613322565b5b906000526020600020906006020160000160405160200161168491906133e5565b6040516020818303038152906040528051906020012003156116b157806116aa9061342b565b905061159d565b600060405180606001604052803373ffffffffffffffffffffffffffffffffffffffff16815260200142815260200185858080601f016020809104026020016040519081016040528093929190818152602001838380828437600081840152601f19601f8201169050808301925050505050505081525090506000808773ffffffffffffffffffffffffffffffffffffffff1673ffffffffffffffffffffffffffffffffffffffff168152602001908152602001600020600601828154811061177d5761177c613322565b5b906000526020600020906006020160050181908060018154018082558091505060019003906000526020600020906003020160009091909190915060008201518160000160006101000a81548173ffffffffffffffffffffffffffffffffffffffff021916908373ffffffffffffffffffffffffffffffffffffffff16021790555060208201518160010155604082015181600201908051906020019061182592919061255e565b505050505050505050565b60606000803373ffffffffffffffffffffffffffffffffffffffff1673ffffffffffffffffffffffffffffffffffffffff168152602001908152602001600020600501805480602002602001604051908101604052809291908181526020016000905b828210156119ad57838290600052602060002090600202016040518060400160405290816000820160009054906101000a900473ffffffffffffffffffffffffffffffffffffffff1673ffffffffffffffffffffffffffffffffffffffff1673ffffffffffffffffffffffffffffffffffffffff16815260200160018201805461191c9061315a565b80601f01602080910402602001604051908101604052809291908181526020018280546119489061315a565b80156119955780601f1061196a57610100808354040283529160200191611995565b820191906000526020600020905b81548152906001019060200180831161197857829003601f168201915b50505050508152505081526020019060010190611893565b50505050905090565b60606119c182610294565b611a00576040517f08c379a00000000000000000000000000000000000000000000000000000000081526004016119f790613243565b60405180910390fd5b6000808373ffffffffffffffffffffffffffffffffffffffff1673ffffffffffffffffffffffffffffffffffffffff1681526020019081526020016000206000018054611a4c9061315a565b80601f0160208091040260200160405190810160405280929190818152602001828054611a789061315a565b8015611ac55780601f10611a9a57610100808354040283529160200191611ac5565b820191906000526020600020905b815481529060010190602001808311611aa857829003601f168201915b50505050509050919050565b611ada33610294565b611b19576040517f08c379a0000000000000000000000000000000000000000000000000000000008152600401611b10906131d7565b60405180910390fd5b611b2283610294565b611b61576040517f08c379a0000000000000000000000000000000000000000000000000000000008152600401611b5890613243565b60405180910390fd5b611b6b3384612206565b611baa576040517f08c379a0000000000000000000000000000000000000000000000000000000008152600401611ba1906137b9565b60405180910390fd5b6000611bb6338561216e565b9050600060405180606001604052803373ffffffffffffffffffffffffffffffffffffffff16815260200142815260200185858080601f016020809104026020016040519081016040528093929190818152602001838380828437600081840152601f19601f8201169050808301925050505050505081525090506001600083815260200190815260200160002081908060018154018082558091505060019003906000526020600020906003020160009091909190915060008201518160000160006101000a81548173ffffffffffffffffffffffffffffffffffffffff021916908373ffffffffffffffffffffffffffffffffffffffff160217905550602082015181600101556040820151816002019080519060200190611cdb92919061255e565b5050505050505050565b60606000803373ffffffffffffffffffffffffffffffffffffffff1673ffffffffffffffffffffffffffffffffffffffff168152602001908152602001600020600601805480602002602001604051908101604052809291908181526020016000905b8282101561216557838290600052602060002090600602016040518060c0016040529081600082018054611d7b9061315a565b80601f0160208091040260200160405190810160405280929190818152602001828054611da79061315a565b8015611df45780601f10611dc957610100808354040283529160200191611df4565b820191906000526020600020905b815481529060010190602001808311611dd757829003601f168201915b50505050508152602001600182018054611e0d9061315a565b80601f0160208091040260200160405190810160405280929190818152602001828054611e399061315a565b8015611e865780601f10611e5b57610100808354040283529160200191611e86565b820191906000526020600020905b815481529060010190602001808311611e6957829003601f168201915b50505050508152602001600282018054611e9f9061315a565b80601f0160208091040260200160405190810160405280929190818152602001828054611ecb9061315a565b8015611f185780601f10611eed57610100808354040283529160200191611f18565b820191906000526020600020905b815481529060010190602001808311611efb57829003601f168201915b505050505081526020016003820160009054906101000a900473ffffffffffffffffffffffffffffffffffffffff1673ffffffffffffffffffffffffffffffffffffffff1673ffffffffffffffffffffffffffffffffffffffff16815260200160048201805480602002602001604051908101604052809291908181526020018280548015611ffc57602002820191906000526020600020905b8160009054906101000a900473ffffffffffffffffffffffffffffffffffffffff1673ffffffffffffffffffffffffffffffffffffffff1681526020019060010190808311611fb2575b5050505050815260200160058201805480602002602001604051908101604052809291908181526020016000905b8282101561214e57838290600052602060002090600302016040518060600160405290816000820160009054906101000a900473ffffffffffffffffffffffffffffffffffffffff1673ffffffffffffffffffffffffffffffffffffffff1673ffffffffffffffffffffffffffffffffffffffff168152602001600182015481526020016002820180546120bd9061315a565b80601f01602080910402602001604051908101604052809291908181526020018280546120e99061315a565b80156121365780601f1061210b57610100808354040283529160200191612136565b820191906000526020600020905b81548152906001019060200180831161211957829003601f168201915b5050505050815250508152602001906001019061202a565b505050508152505081526020019060010190611d48565b50505050905090565b60008173ffffffffffffffffffffffffffffffffffffffff168373ffffffffffffffffffffffffffffffffffffffff1610156121d45782826040516020016121b7929190613821565b604051602081830303815290604052805190602001209050612200565b81836040516020016121e7929190613821565b6040516020818303038152906040528051906020012090505b92915050565b60008060008373ffffffffffffffffffffffffffffffffffffffff1673ffffffffffffffffffffffffffffffffffffffff168152602001908152602001600020600501805490506000808573ffffffffffffffffffffffffffffffffffffffff1673ffffffffffffffffffffffffffffffffffffffff1681526020019081526020016000206005018054905011156122a5576000839050829350809250505b60005b6000808573ffffffffffffffffffffffffffffffffffffffff1673ffffffffffffffffffffffffffffffffffffffff168152602001908152602001600020600501805490508110156123c6578273ffffffffffffffffffffffffffffffffffffffff166000808673ffffffffffffffffffffffffffffffffffffffff1673ffffffffffffffffffffffffffffffffffffffff168152602001908152602001600020600501828154811061235e5761235d613322565b5b906000526020600020906002020160000160009054906101000a900473ffffffffffffffffffffffffffffffffffffffff1673ffffffffffffffffffffffffffffffffffffffff16036123b55760019150506123cc565b806123bf9061342b565b90506122a8565b50600090505b92915050565b600060405180604001604052808473ffffffffffffffffffffffffffffffffffffffff1681526020018381525090506000808573ffffffffffffffffffffffffffffffffffffffff1673ffffffffffffffffffffffffffffffffffffffff16815260200190815260200160002060050181908060018154018082558091505060019003906000526020600020906002020160009091909190915060008201518160000160006101000a81548173ffffffffffffffffffffffffffffffffffffffff021916908373ffffffffffffffffffffffffffffffffffffffff16021790555060208201518160010190805190602001906124cf92919061255e565b50505050505050565b8280546124e49061315a565b90600052602060002090601f016020900481019282612506576000855561254d565b82601f1061251f57803560ff191683800117855561254d565b8280016001018555821561254d579182015b8281111561254c578235825591602001919060010190612531565b5b50905061255a91906125e4565b5090565b82805461256a9061315a565b90600052602060002090601f01602090048101928261258c57600085556125d3565b82601f106125a557805160ff19168380011785556125d3565b828001600101855582156125d3579182015b828111156125d25782518255916020019190600101906125b7565b5b5090506125e091906125e4565b5090565b5b808211156125fd5760008160009055506001016125e5565b5090565b6000604051905090565b600080fd5b600080fd5b600073ffffffffffffffffffffffffffffffffffffffff82169050919050565b600061264082612615565b9050919050565b61265081612635565b811461265b57600080fd5b50565b60008135905061266d81612647565b92915050565b6000602082840312156126895761268861260b565b5b60006126978482850161265e565b91505092915050565b60008115159050919050565b6126b5816126a0565b82525050565b60006020820190506126d060008301846126ac565b92915050565b600080fd5b600080fd5b6000601f19601f8301169050919050565b7f4e487b7100000000000000000000000000000000000000000000000000000000600052604160045260246000fd5b612729826126e0565b810181811067ffffffffffffffff82111715612748576127476126f1565b5b80604052505050565b600061275b612601565b90506127678282612720565b919050565b600067ffffffffffffffff821115612787576127866126f1565b5b612790826126e0565b9050602081019050919050565b82818337600083830152505050565b60006127bf6127ba8461276c565b612751565b9050828152602081018484840111156127db576127da6126db565b5b6127e684828561279d565b509392505050565b600082601f830112612803576128026126d6565b5b81356128138482602086016127ac565b91505092915050565b6000806000606084860312156128355761283461260b565b5b60006128438682870161265e565b935050602084013567ffffffffffffffff81111561286457612863612610565b5b612870868287016127ee565b92505060406128818682870161265e565b9150509250925092565b600080604083850312156128a2576128a161260b565b5b60006128b08582860161265e565b925050602083013567ffffffffffffffff8111156128d1576128d0612610565b5b6128dd858286016127ee565b9150509250929050565b600081519050919050565b600082825260208201905092915050565b6000819050602082019050919050565b61291c81612635565b82525050565b6000819050919050565b61293581612922565b82525050565b600081519050919050565b600082825260208201905092915050565b60005b8381101561297557808201518184015260208101905061295a565b83811115612984576000848401525b50505050565b60006129958261293b565b61299f8185612946565b93506129af818560208601612957565b6129b8816126e0565b840191505092915050565b60006060830160008301516129db6000860182612913565b5060208301516129ee602086018261292c565b5060408301518482036040860152612a06828261298a565b9150508091505092915050565b6000612a1f83836129c3565b905092915050565b6000602082019050919050565b6000612a3f826128e7565b612a4981856128f2565b935083602082028501612a5b85612903565b8060005b85811015612a975784840389528151612a788582612a13565b9450612a8383612a27565b925060208a01995050600181019050612a5f565b50829750879550505050505092915050565b60006020820190508181036000830152612ac38184612a34565b905092915050565b600080fd5b600080fd5b60008083601f840112612aeb57612aea6126d6565b5b8235905067ffffffffffffffff811115612b0857612b07612acb565b5b602083019150836001820283011115612b2457612b23612ad0565b5b9250929050565b60008060208385031215612b4257612b4161260b565b5b600083013567ffffffffffffffff811115612b6057612b5f612610565b5b612b6c85828601612ad5565b92509250509250929050565b60008060408385031215612b8f57612b8e61260b565b5b600083013567ffffffffffffffff811115612bad57612bac612610565b5b612bb9858286016127ee565b925050602083013567ffffffffffffffff811115612bda57612bd9612610565b5b612be6858286016127ee565b9150509250929050565b600080600060408486031215612c0957612c0861260b565b5b6000612c178682870161265e565b935050602084013567ffffffffffffffff811115612c3857612c37612610565b5b612c4486828701612ad5565b92509250509250925092565b60008060008060608587031215612c6a57612c6961260b565b5b6000612c788782880161265e565b945050602085013567ffffffffffffffff811115612c9957612c98612610565b5b612ca5878288016127ee565b935050604085013567ffffffffffffffff811115612cc657612cc5612610565b5b612cd287828801612ad5565b925092505092959194509250565b600081519050919050565b600082825260208201905092915050565b6000819050602082019050919050565b6000604083016000830151612d246000860182612913565b5060208301518482036020860152612d3c828261298a565b9150508091505092915050565b6000612d558383612d0c565b905092915050565b6000602082019050919050565b6000612d7582612ce0565b612d7f8185612ceb565b935083602082028501612d9185612cfc565b8060005b85811015612dcd5784840389528151612dae8582612d49565b9450612db983612d5d565b925060208a01995050600181019050612d95565b50829750879550505050505092915050565b60006020820190508181036000830152612df98184612d6a565b905092915050565b600082825260208201905092915050565b6000612e1d8261293b565b612e278185612e01565b9350612e37818560208601612957565b612e40816126e0565b840191505092915050565b60006020820190508181036000830152612e658184612e12565b905092915050565b600081519050919050565b600082825260208201905092915050565b6000819050602082019050919050565b600081519050919050565b600082825260208201905092915050565b6000819050602082019050919050565b6000612ed18383612913565b60208301905092915050565b6000602082019050919050565b6000612ef582612e99565b612eff8185612ea4565b9350612f0a83612eb5565b8060005b83811015612f3b578151612f228882612ec5565b9750612f2d83612edd565b925050600181019050612f0e565b5085935050505092915050565b600082825260208201905092915050565b6000612f64826128e7565b612f6e8185612f48565b935083602082028501612f8085612903565b8060005b85811015612fbc5784840389528151612f9d8582612a13565b9450612fa883612a27565b925060208a01995050600181019050612f84565b50829750879550505050505092915050565b600060c0830160008301518482036000860152612feb828261298a565b91505060208301518482036020860152613005828261298a565b9150506040830151848203604086015261301f828261298a565b91505060608301516130346060860182612913565b506080830151848203608086015261304c8282612eea565b91505060a083015184820360a08601526130668282612f59565b9150508091505092915050565b600061307f8383612fce565b905092915050565b6000602082019050919050565b600061309f82612e6d565b6130a98185612e78565b9350836020820285016130bb85612e89565b8060005b858110156130f757848403895281516130d88582613073565b94506130e383613087565b925060208a019950506001810190506130bf565b50829750879550505050505092915050565b600060208201905081810360008301526131238184613094565b905092915050565b7f4e487b7100000000000000000000000000000000000000000000000000000000600052602260045260246000fd5b6000600282049050600182168061317257607f821691505b6020821081036131855761318461312b565b5b50919050565b7f43726561746520616e206163636f756e74206669727374210000000000000000600082015250565b60006131c1601883612e01565b91506131cc8261318b565b602082019050919050565b600060208201905081810360008301526131f0816131b4565b9050919050565b7f55736572206973206e6f74207265676973746572656421000000000000000000600082015250565b600061322d601783612e01565b9150613238826131f7565b602082019050919050565b6000602082019050818103600083015261325c81613220565b9050919050565b7f55736572732063616e6e6f742061646420796f757273656c6620616761696e21600082015250565b6000613299602083612e01565b91506132a482613263565b602082019050919050565b600060208201905081810360008301526132c88161328c565b9050919050565b600081905092915050565b60006132e58261293b565b6132ef81856132cf565b93506132ff818560208601612957565b80840191505092915050565b600061331782846132da565b915081905092915050565b7f4e487b7100000000000000000000000000000000000000000000000000000000600052603260045260246000fd5b60008190508160005260206000209050919050565b600081546133738161315a565b61337d81866132cf565b9450600182166000811461339857600181146133a9576133dc565b60ff198316865281860193506133dc565b6133b285613351565b60005b838110156133d4578154818901526001820191506020810190506133b5565b838801955050505b50505092915050565b60006133f18284613366565b915081905092915050565b7f4e487b7100000000000000000000000000000000000000000000000000000000600052601160045260246000fd5b600061343682612922565b91507fffffffffffffffffffffffffffffffffffffffffffffffffffffffffffffffff8203613468576134676133fc565b5b600182019050919050565b7f596f7520617265206e6f7420616e2061646d696e206f6620746869732067726f60008201527f7570000000000000000000000000000000000000000000000000000000000000602082015250565b60006134cf602283612e01565b91506134da82613473565b604082019050919050565b600060208201905081810360008301526134fe816134c2565b9050919050565b7f5573657220616c72656164792065786973747321000000000000000000000000600082015250565b600061353b601483612e01565b915061354682613505565b602082019050919050565b6000602082019050818103600083015261356a8161352e565b9050919050565b7f55736572204e616d652063616e6e6f7420626520656d70747921000000000000600082015250565b60006135a7601a83612e01565b91506135b282613571565b602082019050919050565b600060208201905081810360008301526135d68161359a565b9050919050565b7f55736572732063616e6e6f7420616464207468656d73656c766573206173206160008201527f20667269656e6421000000000000000000000000000000000000000000000000602082015250565b6000613639602883612e01565b9150613644826135dd565b604082019050919050565b600060208201905081810360008301526136688161362c565b9050919050565b7f54686573652075736572732061726520616c726561647920667269656e647321600082015250565b60006136a5602083612e01565b91506136b08261366f565b602082019050919050565b600060208201905081810360008301526136d481613698565b9050919050565b7f596f7520617265206e6f742061646d696e000000000000000000000000000000600082015250565b6000613711601183612e01565b915061371c826136db565b602082019050919050565b6000602082019050818103600083015261374081613704565b9050919050565b7f596f7520617265206e6f7420667269656e64732077697468207468652067697660008201527f656e207573657200000000000000000000000000000000000000000000000000602082015250565b60006137a3602783612e01565b91506137ae82613747565b604082019050919050565b600060208201905081810360008301526137d281613796565b9050919050565b60008160601b9050919050565b60006137f1826137d9565b9050919050565b6000613803826137e6565b9050919050565b61381b61381682612635565b6137f8565b82525050565b600061382d828561380a565b60148201915061383d828461380a565b601482019150819050939250505056fea264697066735822122031c736ef7f713a59cad865aeb37e08ab2f3c8f119e1a3ddaa5458f188fcc01af64736f6c634300080d0033",
  "immutableReferences": {},
  "source": "pragma solidity >=0.7.0 <0.9.0;\n\ncontract Database {\n\n    struct User {\n        string userName;\n        string about;\n        string userId;\n        string profilePhoto;\n        address ethereumAddress;\n        Friend[] friendList;\n        Group[] groupList;\n    }\n\n    struct Friend {\n        address pubkey;\n        string name;\n    }\n\n    struct Message {\n        //uint messageType; \n        address sender;\n        uint256 timestamp;\n        string data;\n    }\n\n    struct Group {\n        string groupName;\n        //string groupId;\n        string groupAbout;\n        string groupPhoto;\n        address admin;\n        //uint replyCount;\n        address[] membersArray;\n        Message[] messages;\n        //mapping(address=>bool) members;\n    }\n\n    //Group[] public allGroups;\n    mapping(address => User) userList;\n    mapping(bytes32 => Message[]) allMessages;\n\n    function checkUserExists(address pubkey) public view returns(bool) {\n        return bytes(userList[pubkey].userName).length > 0;\n    }\n\n    function getUserName(address pubkey) external view returns(string memory) {\n        require(checkUserExists(pubkey), \"User is not registered!\");\n        return userList[pubkey].userName;\n    }\n\n    function createAccount(string calldata userName) external {\n        require(checkUserExists(msg.sender)==false, \"User already exists!\");\n        require(bytes(userName).length>0, \"User Name cannot be empty!\"); \n        userList[msg.sender].userName = userName;\n    }\n\n    function checkAlreadyFriends(address pubkey1, address pubkey2) internal view returns(bool) {\n        if(userList[pubkey1].friendList.length > userList[pubkey2].friendList.length){\n            address tmp = pubkey1;\n            pubkey1 = pubkey2;\n            pubkey2 = tmp;\n        }\n\n        for(uint i=0; i<userList[pubkey1].friendList.length; ++i){\n            if(userList[pubkey1].friendList[i].pubkey == pubkey2)\n                return true;\n        }\n        return false;\n    }\n\n    function addFriend(address friend_key, string calldata userName) external {\n        require(checkUserExists(msg.sender), \"Create an account first!\");\n        require(checkUserExists(friend_key), \"User is not registered!\");\n        require(msg.sender!=friend_key, \"Users cannot add themselves as a friend!\");\n        require(checkAlreadyFriends(msg.sender,friend_key)==false, \"These users are already friends!\");\n\n        _addFriend(msg.sender, friend_key, userName);\n        _addFriend(friend_key, msg.sender, userList[msg.sender].userName);\n    }\n\n    function _addFriend(address me, address friend_key, string memory userName) internal {\n        Friend memory newFriend = Friend(friend_key, userName);\n        userList[me].friendList.push(newFriend);\n    }\n\n    function getMyFriendList() external view returns(Friend[] memory) {\n        return userList[msg.sender].friendList;\n    }\n\n    function _getChatCode(address pubkey1, address pubkey2) internal pure returns(bytes32) {\n        if(pubkey1 < pubkey2)\n            return keccak256(abi.encodePacked(pubkey1, pubkey2));\n        else\n            return keccak256(abi.encodePacked(pubkey2, pubkey1));\n    }\n\n    function sendMessage(address friend_key, string calldata _msg) external {\n        require(checkUserExists(msg.sender), \"Create an account first!\");\n        require(checkUserExists(friend_key), \"User is not registered!\");\n        require(checkAlreadyFriends(msg.sender,friend_key), \"You are not friends with the given user\");\n\n        bytes32 chatCode = _getChatCode(msg.sender, friend_key);\n        Message memory newMsg = Message(msg.sender, block.timestamp, _msg);\n        allMessages[chatCode].push(newMsg);\n    }\n\n    function readMessage(address friend_key) external view returns(Message[] memory) {\n        bytes32 chatCode = _getChatCode(msg.sender, friend_key);\n        return allMessages[chatCode];\n    }\n\n    //Group functions\n    function addGroup(string memory name, string memory about) public {\n        \n        uint n = userList[msg.sender].groupList.length;\n        userList[msg.sender].groupList[n].groupName = name;\n        userList[msg.sender].groupList[n].admin = msg.sender;\n        userList[msg.sender].groupList[n].groupAbout = about;\n        userList[msg.sender].groupList[n].groupPhoto = \"\";\n        //userList[msg.sender].groupList[n].groupId = \"\";\n        userList[msg.sender].groupList[n].membersArray.push(msg.sender);\n    }\n    \n    function getMyGroupList() external view returns(Group[] memory) {\n        return userList[msg.sender].groupList;\n    }\n\n    function addGroupMembers(address me, string memory name, address newMember) public {\n        require(checkUserExists(msg.sender), \"Create an account first!\");\n        require(checkUserExists(newMember), \"User is not registered!\");\n        require(msg.sender!=newMember, \"Users cannot add yourself again!\");\n        //require(checkAlreadyFriends(msg.sender,newMember)==true, \"These users are not friends!\");\n        uint i = 0;\n        for(i = 0; i < userList[me].groupList.length; ++i){\n            if(keccak256(abi.encodePacked(userList[me].groupList[i].groupName)) == keccak256(abi.encodePacked(name))){\n                break;\n            }\n        }\n        require(userList[me].groupList[i].admin == msg.sender, \"You are not an admin of this group\");\n        userList[me].groupList[i].membersArray.push(newMember);\n    }\n\n    function removeGroupMembers(address me, string memory name, address memberToRemove) public {\n        uint i = 0;\n        for(i = 0; i < userList[me].groupList.length; ++i){\n            if(keccak256(abi.encodePacked(userList[me].groupList[i].groupName)) == keccak256(abi.encodePacked(name))){\n                break;\n            }\n        }\n        require(userList[me].groupList[i].admin == msg.sender, \"You are not admin\");\n        uint j = 0;\n        for(j = 0; j < userList[me].groupList[i].membersArray.length; ++j){\n            if(userList[me].groupList[i].membersArray[j] == memberToRemove){\n                break;\n            }\n        }\n        delete userList[me].groupList[i].membersArray[j];\n    }\n\n    function sendMessageGroup(address me, string memory name, string calldata _msg) external {\n        uint i = 0;\n        for(i = 0; i < userList[me].groupList.length; ++i){\n            if(keccak256(abi.encodePacked(userList[me].groupList[i].groupName)) == keccak256(abi.encodePacked(name))){\n                break;\n            }\n        }\n        Message memory newMsg = Message(msg.sender, block.timestamp, _msg);\n        userList[me].groupList[i].messages.push(newMsg);\n    }\n\n    function readMessageGroup(address me, string memory name) external view returns(Message[] memory) {\n        uint i = 0;\n        for(i = 0; i < userList[me].groupList.length; ++i){\n            if(keccak256(abi.encodePacked(userList[me].groupList[i].groupName)) == keccak256(abi.encodePacked(name))){\n                break;\n            }\n        }\n        return userList[me].groupList[i].messages;\n    }\n}",
  "sourcePath": "/home/ritik/Desktop/Mudit/Samvad/src/contracts/Database.sol",
  "compiler": {
    "name": "solc",
    "version": "0.8.13+commit.abaa5c0e.Emscripten.clang"
  },
  "schemaVersion": "3.4.6",
  "updatedAt": "2022-04-06T09:47:06.541Z",
  "networkType": "ethereum",
  "devdoc": {
    "kind": "dev",
    "methods": {},
    "version": 1
  },
  "userdoc": {
    "kind": "user",
    "methods": {},
    "version": 1
  }
}